{
  "contractName": "ParkerFunctions",
  "abi": [
    {
      "anonymous": false,
      "inputs": [
        {
          "indexed": false,
          "internalType": "bytes32",
          "name": "",
          "type": "bytes32"
        }
      ],
      "name": "Print",
      "type": "event"
    },
    {
      "anonymous": false,
      "inputs": [
        {
          "indexed": false,
          "internalType": "address",
          "name": "user",
          "type": "address"
        },
        {
          "indexed": false,
          "internalType": "uint256",
          "name": "amount",
          "type": "uint256"
        }
      ],
      "name": "ValueReceived",
      "type": "event"
    },
    {
      "stateMutability": "payable",
      "type": "fallback",
      "payable": true
    },
    {
      "inputs": [
        {
          "internalType": "address",
          "name": "_owner",
          "type": "address"
        }
      ],
      "name": "checkIfOwnerExists",
      "outputs": [
        {
          "internalType": "bool",
          "name": "",
          "type": "bool"
        }
      ],
      "stateMutability": "view",
      "type": "function",
      "constant": true
    },
    {
      "inputs": [
        {
          "internalType": "uint256",
          "name": "amount",
          "type": "uint256"
        },
        {
          "internalType": "bytes",
          "name": "signature",
          "type": "bytes"
        },
        {
          "internalType": "uint256",
          "name": "nonce",
          "type": "uint256"
        },
        {
          "internalType": "address",
          "name": "sender",
          "type": "address"
        },
        {
          "internalType": "address",
          "name": "contractAddress",
          "type": "address"
        },
        {
          "internalType": "address",
          "name": "_receiver",
          "type": "address"
        }
      ],
      "name": "isMatchingSignature",
      "outputs": [
        {
          "internalType": "bool",
          "name": "",
          "type": "bool"
        }
      ],
      "stateMutability": "nonpayable",
      "type": "function"
    },
    {
      "inputs": [
        {
          "internalType": "uint16",
          "name": "_numOfParking",
          "type": "uint16"
        },
        {
          "internalType": "uint256",
          "name": "_billAmt",
          "type": "uint256"
        },
        {
          "internalType": "uint256",
          "name": "_timeout",
          "type": "uint256"
        }
      ],
      "name": "registerParking",
      "outputs": [],
      "stateMutability": "payable",
      "type": "function",
      "payable": true
    },
    {
      "stateMutability": "payable",
      "type": "receive",
      "payable": true
    },
    {
      "inputs": [
        {
          "internalType": "address",
          "name": "_owner",
          "type": "address"
        }
      ],
      "name": "numberOfFreeParkings",
      "outputs": [
        {
          "internalType": "uint16",
          "name": "",
          "type": "uint16"
        }
      ],
      "stateMutability": "view",
      "type": "function",
      "constant": true
    },
    {
      "inputs": [
        {
          "internalType": "address payable",
          "name": "_owner",
          "type": "address"
        }
      ],
      "name": "enterParking",
      "outputs": [],
      "stateMutability": "payable",
      "type": "function",
      "payable": true
    },
    {
      "inputs": [
        {
          "internalType": "uint256",
          "name": "_amount",
          "type": "uint256"
        },
        {
          "internalType": "bytes",
          "name": "_signature",
          "type": "bytes"
        },
        {
          "internalType": "uint256",
          "name": "_nonce",
          "type": "uint256"
        },
        {
          "internalType": "address payable",
          "name": "_sender",
          "type": "address"
        }
      ],
      "name": "claimFunds",
      "outputs": [],
      "stateMutability": "payable",
      "type": "function",
      "payable": true
    },
    {
      "inputs": [],
      "name": "getAddress",
      "outputs": [
        {
          "internalType": "address",
          "name": "",
          "type": "address"
        }
      ],
      "stateMutability": "view",
      "type": "function",
      "constant": true
    }
  ],
  "bytecode": "0x608060405234801561001057600080fd5b5030600360006101000a81548173ffffffffffffffffffffffffffffffffffffffff021916908373ffffffffffffffffffffffffffffffffffffffff160217905550611b64806100616000396000f3fe6080604052600436106100745760003560e01c80633c0373131161004e5780633c0373131461013a5780634dce938a146101565780637bfc544a14610193578063cac246ae146101d0576100b4565b806312cdc6ad146100b657806316135938146100f357806338cc48311461010f576100b4565b366100b4577f7e71433ddf847725166244795048ecf3e3f9f35628254ecbf73605666423349333346040516100aa929190611394565b60405180910390a1005b005b3480156100c257600080fd5b506100dd60048036038101906100d89190610f04565b6101ec565b6040516100ea9190611573565b60405180910390f35b61010d60048036038101906101089190610f2d565b610245565b005b34801561011b57600080fd5b50610124610545565b6040516101319190611379565b60405180910390f35b610154600480360381019061014f9190610f56565b61056f565b005b34801561016257600080fd5b5061017d60048036038101906101789190610f04565b61069f565b60405161018a91906113bd565b60405180910390f35b34801561019f57600080fd5b506101ba60048036038101906101b59190611020565b6106fd565b6040516101c791906113bd565b60405180910390f35b6101ea60048036038101906101e59190610fa5565b610719565b005b60008060008373ffffffffffffffffffffffffffffffffffffffff1673ffffffffffffffffffffffffffffffffffffffff16815260200190815260200160002060000160009054906101000a900461ffff169050919050565b60008060008373ffffffffffffffffffffffffffffffffffffffff1673ffffffffffffffffffffffffffffffffffffffff16815260200190815260200160002060000160009054906101000a900461ffff1661ffff16116102db576040517f08c379a00000000000000000000000000000000000000000000000000000000081526004016102d2906114b3565b60405180910390fd5b66b1a2bc2ec50000341015610325576040517f08c379a000000000000000000000000000000000000000000000000000000000815260040161031c906114d3565b60405180910390fd5b6000600360009054906101000a900473ffffffffffffffffffffffffffffffffffffffff1673ffffffffffffffffffffffffffffffffffffffff163460405161036d90611364565b60006040518083038185875af1925050503d80600081146103aa576040519150601f19603f3d011682016040523d82523d6000602084013e6103af565b606091505b50509050806103f3576040517f08c379a00000000000000000000000000000000000000000000000000000000081526004016103ea90611513565b60405180910390fd5b60405180606001604052804281526020013481526020018373ffffffffffffffffffffffffffffffffffffffff16815250600160003373ffffffffffffffffffffffffffffffffffffffff1673ffffffffffffffffffffffffffffffffffffffff168152602001908152602001600020600082015181600001556020820151816001015560408201518160020160006101000a81548173ffffffffffffffffffffffffffffffffffffffff021916908373ffffffffffffffffffffffffffffffffffffffff16021790555090505060008060008473ffffffffffffffffffffffffffffffffffffffff1673ffffffffffffffffffffffffffffffffffffffff168152602001908152602001600020905080600001600081819054906101000a900461ffff16809291906105259061177c565b91906101000a81548161ffff021916908361ffff16021790555050505050565b6000600360009054906101000a900473ffffffffffffffffffffffffffffffffffffffff16905090565b66038d7ea4c680008361ffff166105869190611642565b66ffffffffffffff16341461059a57600080fd5b600360009054906101000a900473ffffffffffffffffffffffffffffffffffffffff1673ffffffffffffffffffffffffffffffffffffffff166108fc349081150290604051600060405180830381858888f19350505050158015610602573d6000803e3d6000fd5b5060405180606001604052808461ffff168152602001838152602001828152506000803373ffffffffffffffffffffffffffffffffffffffff1673ffffffffffffffffffffffffffffffffffffffff16815260200190815260200160002060008201518160000160006101000a81548161ffff021916908361ffff1602179055506020820151816001015560408201518160020155905050505050565b6000806000808473ffffffffffffffffffffffffffffffffffffffff1673ffffffffffffffffffffffffffffffffffffffff1681526020019081526020016000206001015411156106f357600190506106f8565b600090505b919050565b600061070d878787878787610c36565b90509695505050505050565b6002600083815260200190815260200160002060009054906101000a900460ff161561077a576040517f08c379a000000000000000000000000000000000000000000000000000000000815260040161077190611473565b60405180910390fd5b60016002600084815260200190815260200160002060006101000a81548160ff0219169083151502179055506000600160008373ffffffffffffffffffffffffffffffffffffffff1673ffffffffffffffffffffffffffffffffffffffff168152602001908152602001600020600101541415801561083b575083600160008373ffffffffffffffffffffffffffffffffffffffff1673ffffffffffffffffffffffffffffffffffffffff1681526020019081526020016000206001015410155b801561088a57506000600160008373ffffffffffffffffffffffffffffffffffffffff1673ffffffffffffffffffffffffffffffffffffffff1681526020019081526020016000206000015414155b6108c9576040517f08c379a00000000000000000000000000000000000000000000000000000000081526004016108c0906114f3565b60405180910390fd5b6108f984848484600360009054906101000a900473ffffffffffffffffffffffffffffffffffffffff1633610c36565b610938576040517f08c379a000000000000000000000000000000000000000000000000000000000815260040161092f90611533565b60405180910390fd5b60003373ffffffffffffffffffffffffffffffffffffffff168560405161095e90611364565b60006040518083038185875af1925050503d806000811461099b576040519150601f19603f3d011682016040523d82523d6000602084013e6109a0565b606091505b50509050806109e4576040517f08c379a00000000000000000000000000000000000000000000000000000000081526004016109db90611553565b60405180910390fd5b60008273ffffffffffffffffffffffffffffffffffffffff1686600160008673ffffffffffffffffffffffffffffffffffffffff1673ffffffffffffffffffffffffffffffffffffffff16815260200190815260200160002060010154610a4b9190611683565b604051610a5790611364565b60006040518083038185875af1925050503d8060008114610a94576040519150601f19603f3d011682016040523d82523d6000602084013e610a99565b606091505b5050905080610add576040517f08c379a0000000000000000000000000000000000000000000000000000000008152600401610ad490611493565b60405180910390fd5b60405180606001604052806000815260200160008152602001600073ffffffffffffffffffffffffffffffffffffffff16815250600160008573ffffffffffffffffffffffffffffffffffffffff1673ffffffffffffffffffffffffffffffffffffffff168152602001908152602001600020600082015181600001556020820151816001015560408201518160020160006101000a81548173ffffffffffffffffffffffffffffffffffffffff021916908373ffffffffffffffffffffffffffffffffffffffff16021790555090505060008060003373ffffffffffffffffffffffffffffffffffffffff1673ffffffffffffffffffffffffffffffffffffffff168152602001908152602001600020905080600001600081819054906101000a900461ffff1680929190610c12906117d7565b91906101000a81548161ffff021916908361ffff1602179055505050505050505050565b60007f8528251299ede771e6157005ad82960c1e78e9118223b095bcd115c01754de496000604051610c689190611438565b60405180910390a16000610ca783898887604051602001610c8c94939291906112f0565b60405160208183030381529060405280519060200120610d25565b90507f8528251299ede771e6157005ad82960c1e78e9118223b095bcd115c01754de4981604051610cd891906113d8565b60405180910390a18473ffffffffffffffffffffffffffffffffffffffff16610d018289610d55565b73ffffffffffffffffffffffffffffffffffffffff16149150509695505050505050565b600081604051602001610d38919061133e565b604051602081830303815290604052805190602001209050919050565b600080600080610d6485610dc4565b92509250925060018684848460405160008152602001604052604051610d8d94939291906113f3565b6020604051602081039080840390855afa158015610daf573d6000803e3d6000fd5b50505060206040510351935050505092915050565b60008060006041845114610e0d576040517f08c379a0000000000000000000000000000000000000000000000000000000008152600401610e0490611453565b60405180910390fd5b6020840151915060408401519050606084015160001a9250601b8360ff161015610e4157601b83610e3e919061160b565b92505b9193909250565b6000610e5b610e56846115b3565b61158e565b905082815260208101848484011115610e7357600080fd5b610e7e84828561176d565b509392505050565b600081359050610e9581611ad2565b92915050565b600081359050610eaa81611ae9565b92915050565b600082601f830112610ec157600080fd5b8135610ed1848260208601610e48565b91505092915050565b600081359050610ee981611b00565b92915050565b600081359050610efe81611b17565b92915050565b600060208284031215610f1657600080fd5b6000610f2484828501610e86565b91505092915050565b600060208284031215610f3f57600080fd5b6000610f4d84828501610e9b565b91505092915050565b600080600060608486031215610f6b57600080fd5b6000610f7986828701610eda565b9350506020610f8a86828701610eef565b9250506040610f9b86828701610eef565b9150509250925092565b60008060008060808587031215610fbb57600080fd5b6000610fc987828801610eef565b945050602085013567ffffffffffffffff811115610fe657600080fd5b610ff287828801610eb0565b935050604061100387828801610eef565b925050606061101487828801610e9b565b91505092959194509250565b60008060008060008060c0878903121561103957600080fd5b600061104789828a01610eef565b965050602087013567ffffffffffffffff81111561106457600080fd5b61107089828a01610eb0565b955050604061108189828a01610eef565b945050606061109289828a01610e86565b93505060806110a389828a01610e86565b92505060a06110b489828a01610e86565b9150509295509295509295565b6110ca816116b7565b82525050565b6110e16110dc826116b7565b611802565b82525050565b6110f0816116db565b82525050565b6110ff816116e7565b82525050565b611116611111826116e7565b611814565b82525050565b61112581611753565b82525050565b6000611138601c83611600565b9150611143826118c3565b601c82019050919050565b600061115b601b836115ef565b9150611166826118ec565b602082019050919050565b600061117e6019836115ef565b915061118982611915565b602082019050919050565b60006111a16026836115ef565b91506111ac8261193e565b604082019050919050565b60006111c4601a836115ef565b91506111cf8261198d565b602082019050919050565b60006111e76021836115ef565b91506111f2826119b6565b604082019050919050565b600061120a6015836115ef565b915061121582611a05565b602082019050919050565b600061122d601b836115ef565b915061123882611a2e565b602082019050919050565b60006112506015836115ef565b915061125b82611a57565b602082019050919050565b60006112736000836115e4565b915061127e82611a80565b600082019050919050565b60006112966024836115ef565b91506112a182611a83565b604082019050919050565b6112b5816116fb565b82525050565b6112c481611729565b82525050565b6112db6112d682611729565b611830565b82525050565b6112ea81611746565b82525050565b60006112fc82876110d0565b60148201915061130c82866112ca565b60208201915061131c82856112ca565b60208201915061132c82846110d0565b60148201915081905095945050505050565b60006113498261112b565b91506113558284611105565b60208201915081905092915050565b600061136f82611266565b9150819050919050565b600060208201905061138e60008301846110c1565b92915050565b60006040820190506113a960008301856110c1565b6113b660208301846112bb565b9392505050565b60006020820190506113d260008301846110e7565b92915050565b60006020820190506113ed60008301846110f6565b92915050565b600060808201905061140860008301876110f6565b61141560208301866112e1565b61142260408301856110f6565b61142f60608301846110f6565b95945050505050565b600060208201905061144d600083018461111c565b92915050565b6000602082019050818103600083015261146c8161114e565b9050919050565b6000602082019050818103600083015261148c81611171565b9050919050565b600060208201905081810360008301526114ac81611194565b9050919050565b600060208201905081810360008301526114cc816111b7565b9050919050565b600060208201905081810360008301526114ec816111da565b9050919050565b6000602082019050818103600083015261150c816111fd565b9050919050565b6000602082019050818103600083015261152c81611220565b9050919050565b6000602082019050818103600083015261154c81611243565b9050919050565b6000602082019050818103600083015261156c81611289565b9050919050565b600060208201905061158860008301846112ac565b92915050565b60006115986115a9565b90506115a482826117a6565b919050565b6000604051905090565b600067ffffffffffffffff8211156115ce576115cd611869565b5b6115d782611898565b9050602081019050919050565b600081905092915050565b600082825260208201905092915050565b600081905092915050565b600061161682611746565b915061162183611746565b92508260ff038211156116375761163661183a565b5b828201905092915050565b600061164d82611733565b915061165883611733565b92508166ffffffffffffff04831182151516156116785761167761183a565b5b828202905092915050565b600061168e82611729565b915061169983611729565b9250828210156116ac576116ab61183a565b5b828203905092915050565b60006116c282611709565b9050919050565b60006116d482611709565b9050919050565b60008115159050919050565b6000819050919050565b6000819050919050565b600061ffff82169050919050565b600073ffffffffffffffffffffffffffffffffffffffff82169050919050565b6000819050919050565b600066ffffffffffffff82169050919050565b600060ff82169050919050565b6000611766611761836116f1565b6118a9565b9050919050565b82818337600083830152505050565b6000611787826116fb565b9150600082141561179b5761179a61183a565b5b600182039050919050565b6117af82611898565b810181811067ffffffffffffffff821117156117ce576117cd611869565b5b80604052505050565b60006117e2826116fb565b915061ffff8214156117f7576117f661183a565b5b600182019050919050565b600061180d8261181e565b9050919050565b6000819050919050565b6000611829826118b6565b9050919050565b6000819050919050565b7f4e487b7100000000000000000000000000000000000000000000000000000000600052601160045260246000fd5b7f4e487b7100000000000000000000000000000000000000000000000000000000600052604160045260246000fd5b6000601f19601f8301169050919050565b60008160001b9050919050565b60008160601b9050919050565b7f19457468657265756d205369676e6564204d6573736167653a0a333200000000600082015250565b7f5369676e617475726520697320696e76616c6964206c656e6774680000000000600082015250565b7f4e6f6e636520616c72656164792075736564206265666f726500000000000000600082015250565b7f72656d61696e696e672066756e6473206e6f742072657475726e656420746f2060008201527f7061726b65720000000000000000000000000000000000000000000000000000602082015250565b7f4e6f2066726565207061726b696e67207370616365206c656674000000000000600082015250565b7f4e6f7420656e6f7567682066756e647320746f20656e746572207061726b696e60008201527f6700000000000000000000000000000000000000000000000000000000000000602082015250565b7f7061726b6572206e6f7420696e207061726b696e670000000000000000000000600082015250565b7f616d6f756e74206e6f742073656e7420746f20636f6e74726163740000000000600082015250565b7f6e6f7420612076616c6964207369676e61747572650000000000000000000000600082015250565b50565b7f66756e6473206e6f74207265636569766564206279207061726b696e6720737960008201527f7374656d00000000000000000000000000000000000000000000000000000000602082015250565b611adb816116b7565b8114611ae657600080fd5b50565b611af2816116c9565b8114611afd57600080fd5b50565b611b09816116fb565b8114611b1457600080fd5b50565b611b2081611729565b8114611b2b57600080fd5b5056fea264697066735822122091c2cc411b88cd205146fcdca03d49df4d16dafcdf9443c55e4006042a0ddd5a64736f6c63430008040033",
  "immutableReferences": {},
  "source": "//SPDX-License-Identifier: MIT\r\n\r\npragma solidity >0.6.0;\r\nimport \"./ParkingSystem.sol\";\r\n\r\ncontract ParkerFunctions is ParkingSystem {\r\n    function numberOfFreeParkings(address _owner) public view returns (uint16) {\r\n        return ownersList[_owner].numOfParkings;\r\n    }\r\n\r\n    function enterParking(address payable _owner) external payable {\r\n        require(\r\n            ownersList[_owner].numOfParkings > 0,\r\n            \"No free parking space left\"\r\n        );\r\n        require(msg.value >= 0.05 ether, \"Not enough funds to enter parking\");\r\n        (bool sent, ) = payable(contractAddress).call{value: msg.value}(\"\");\r\n        require(sent, \"amount not sent to contract\");\r\n        parkersList[msg.sender] = ParkerInfo({\r\n            inTime: block.timestamp,\r\n            maxValue: msg.value,\r\n            owner: _owner\r\n        });\r\n        ParkingInfo storage parkOwner = ownersList[_owner];\r\n        parkOwner.numOfParkings--;\r\n    }\r\n\r\n    function claimFunds(\r\n        uint256 _amount,\r\n        bytes memory _signature,\r\n        uint256 _nonce,\r\n        address payable _sender\r\n    ) external payable {\r\n        require(!usedNonces[_nonce], \"Nonce already used before\");\r\n        usedNonces[_nonce] = true;\r\n        require(\r\n            parkersList[_sender].maxValue != 0 &&\r\n                parkersList[_sender].maxValue >= _amount &&\r\n                parkersList[_sender].inTime != 0,\r\n            \"parker not in parking\"\r\n        );\r\n        require(\r\n            isValidSignature(\r\n                _amount,\r\n                _signature,\r\n                _nonce,\r\n                _sender,\r\n                contractAddress,\r\n                msg.sender\r\n            ),\r\n            \"not a valid signature\"\r\n        );\r\n        (bool sent1, ) = payable(msg.sender).call{value: _amount}(\"\");\r\n        require(sent1, \"funds not received by parking system\");\r\n        (bool sent2, ) = _sender.call{\r\n            value: parkersList[_sender].maxValue - _amount\r\n        }(\"\");\r\n        require(sent2, \"remaining funds not returned to parker\");\r\n        parkersList[_sender] = ParkerInfo({\r\n            inTime: 0,\r\n            maxValue: 0,\r\n            owner: payable(address(0))\r\n        });\r\n        ParkingInfo storage parkOwner = ownersList[msg.sender];\r\n        parkOwner.numOfParkings++;\r\n    }\r\n\r\n    function getAddress() public view returns (address) {\r\n        return contractAddress;\r\n    }\r\n}\r\n",
  "sourcePath": "C:\\Projects\\Blockchain\\smart-parking-system\\contracts\\ParkerFunctions.sol",
  "compiler": {
    "name": "solc",
    "version": "0.8.4+commit.c7e474f2.Emscripten.clang"
  },
  "schemaVersion": "3.4.6",
  "updatedAt": "2022-05-25T18:08:53.744Z",
  "networkType": "ethereum",
  "devdoc": {
    "kind": "dev",
    "methods": {},
    "version": 1
  },
  "userdoc": {
    "kind": "user",
    "methods": {},
    "version": 1
  }
}