{
  "contractName": "ParkerFunctions",
  "abi": [
    {
      "inputs": [],
      "stateMutability": "payable",
      "type": "constructor",
      "payable": true
    },
    {
      "anonymous": false,
      "inputs": [
        {
          "indexed": true,
          "internalType": "uint256",
          "name": "nonce",
          "type": "uint256"
        },
        {
          "indexed": true,
          "internalType": "address",
          "name": "owner",
          "type": "address"
        }
      ],
      "name": "ClaimFunds",
      "type": "event"
    },
    {
      "anonymous": false,
      "inputs": [
        {
          "indexed": true,
          "internalType": "address",
          "name": "client",
          "type": "address"
        },
        {
          "indexed": true,
          "internalType": "address",
          "name": "owner",
          "type": "address"
        },
        {
          "indexed": true,
          "internalType": "uint256",
          "name": "nonce",
          "type": "uint256"
        }
      ],
      "name": "EnterParking",
      "type": "event"
    },
    {
      "anonymous": false,
      "inputs": [
        {
          "indexed": false,
          "internalType": "bytes32",
          "name": "",
          "type": "bytes32"
        }
      ],
      "name": "Print",
      "type": "event"
    },
    {
      "anonymous": false,
      "inputs": [
        {
          "indexed": true,
          "internalType": "address",
          "name": "owner",
          "type": "address"
        },
        {
          "indexed": false,
          "internalType": "uint16",
          "name": "numOfParking",
          "type": "uint16"
        },
        {
          "indexed": false,
          "internalType": "uint256",
          "name": "billamt",
          "type": "uint256"
        },
        {
          "indexed": false,
          "internalType": "uint256",
          "name": "timeout",
          "type": "uint256"
        }
      ],
      "name": "RegisterParking",
      "type": "event"
    },
    {
      "anonymous": false,
      "inputs": [
        {
          "indexed": false,
          "internalType": "address",
          "name": "user",
          "type": "address"
        },
        {
          "indexed": false,
          "internalType": "uint256",
          "name": "amount",
          "type": "uint256"
        }
      ],
      "name": "ValueReceived",
      "type": "event"
    },
    {
      "stateMutability": "payable",
      "type": "fallback",
      "payable": true
    },
    {
      "inputs": [
        {
          "internalType": "address",
          "name": "_owner",
          "type": "address"
        }
      ],
      "name": "checkIfOwnerExists",
      "outputs": [
        {
          "internalType": "bool",
          "name": "",
          "type": "bool"
        }
      ],
      "stateMutability": "view",
      "type": "function",
      "constant": true
    },
    {
      "inputs": [
        {
          "internalType": "uint256",
          "name": "amount",
          "type": "uint256"
        },
        {
          "internalType": "bytes",
          "name": "signature",
          "type": "bytes"
        },
        {
          "internalType": "uint256",
          "name": "nonce",
          "type": "uint256"
        },
        {
          "internalType": "address",
          "name": "sender",
          "type": "address"
        },
        {
          "internalType": "address",
          "name": "contractAddress",
          "type": "address"
        },
        {
          "internalType": "address",
          "name": "_receiver",
          "type": "address"
        }
      ],
      "name": "isMatchingSignature",
      "outputs": [
        {
          "internalType": "bool",
          "name": "",
          "type": "bool"
        }
      ],
      "stateMutability": "nonpayable",
      "type": "function"
    },
    {
      "inputs": [
        {
          "internalType": "uint16",
          "name": "_numOfParking",
          "type": "uint16"
        },
        {
          "internalType": "uint256",
          "name": "_billAmt",
          "type": "uint256"
        },
        {
          "internalType": "uint256",
          "name": "_timeout",
          "type": "uint256"
        }
      ],
      "name": "registerParking",
      "outputs": [],
      "stateMutability": "payable",
      "type": "function",
      "payable": true
    },
    {
      "stateMutability": "payable",
      "type": "receive",
      "payable": true
    },
    {
      "inputs": [
        {
          "internalType": "address",
          "name": "_owner",
          "type": "address"
        }
      ],
      "name": "numberOfFreeParkings",
      "outputs": [
        {
          "internalType": "uint16",
          "name": "",
          "type": "uint16"
        }
      ],
      "stateMutability": "view",
      "type": "function",
      "constant": true
    },
    {
      "inputs": [
        {
          "internalType": "address payable",
          "name": "_owner",
          "type": "address"
        },
        {
          "internalType": "uint256",
          "name": "_nonce",
          "type": "uint256"
        }
      ],
      "name": "enterParking",
      "outputs": [],
      "stateMutability": "payable",
      "type": "function",
      "payable": true
    },
    {
      "inputs": [
        {
          "internalType": "uint256",
          "name": "_amount",
          "type": "uint256"
        },
        {
          "internalType": "bytes",
          "name": "_signature",
          "type": "bytes"
        },
        {
          "internalType": "uint256",
          "name": "_nonce",
          "type": "uint256"
        },
        {
          "internalType": "address payable",
          "name": "_sender",
          "type": "address"
        }
      ],
      "name": "claimFunds",
      "outputs": [],
      "stateMutability": "payable",
      "type": "function",
      "payable": true
    },
    {
      "inputs": [],
      "name": "getAddress",
      "outputs": [
        {
          "internalType": "address",
          "name": "",
          "type": "address"
        }
      ],
      "stateMutability": "view",
      "type": "function",
      "constant": true
    }
  ],
  "bytecode": "0x608060405230600360006101000a81548173ffffffffffffffffffffffffffffffffffffffff021916908373ffffffffffffffffffffffffffffffffffffffff160217905550611cf3806100546000396000f3fe6080604052600436106100745760003560e01c80634dce938a1161004e5780634dce938a1461013a5780637bfc544a14610177578063acadb80d146101b4578063cac246ae146101d0576100b4565b806312cdc6ad146100b657806338cc4831146100f35780633c0373131461011e576100b4565b366100b4577f7e71433ddf847725166244795048ecf3e3f9f35628254ecbf73605666423349333346040516100aa9291906114da565b60405180910390a1005b005b3480156100c257600080fd5b506100dd60048036038101906100d89190611014565b6101ec565b6040516100ea91906116d9565b60405180910390f35b3480156100ff57600080fd5b50610108610245565b60405161011591906114bf565b60405180910390f35b61013860048036038101906101339190611079565b61026f565b005b34801561014657600080fd5b50610161600480360381019061015c9190611014565b6103d5565b60405161016e9190611503565b60405180910390f35b34801561018357600080fd5b5061019e60048036038101906101999190611143565b610433565b6040516101ab9190611503565b60405180910390f35b6101ce60048036038101906101c9919061103d565b61044f565b005b6101ea60048036038101906101e591906110c8565b6107e5565b005b60008060008373ffffffffffffffffffffffffffffffffffffffff1673ffffffffffffffffffffffffffffffffffffffff16815260200190815260200160002060000160009054906101000a900461ffff169050919050565b6000600360009054906101000a900473ffffffffffffffffffffffffffffffffffffffff16905090565b66038d7ea4c680008361ffff1661028691906117a8565b66ffffffffffffff1634146102d0576040517f08c379a00000000000000000000000000000000000000000000000000000000081526004016102c790611619565b60405180910390fd5b600360009054906101000a900473ffffffffffffffffffffffffffffffffffffffff1673ffffffffffffffffffffffffffffffffffffffff166108fc349081150290604051600060405180830381858888f19350505050158015610338573d6000803e3d6000fd5b5060405180606001604052808461ffff168152602001838152602001828152506000803373ffffffffffffffffffffffffffffffffffffffff1673ffffffffffffffffffffffffffffffffffffffff16815260200190815260200160002060008201518160000160006101000a81548161ffff021916908361ffff1602179055506020820151816001015560408201518160020155905050505050565b6000806000808473ffffffffffffffffffffffffffffffffffffffff1673ffffffffffffffffffffffffffffffffffffffff168152602001908152602001600020600101541115610429576001905061042e565b600090505b919050565b6000610443878787878787610d46565b90509695505050505050565b60008060008473ffffffffffffffffffffffffffffffffffffffff1673ffffffffffffffffffffffffffffffffffffffff16815260200190815260200160002060000160009054906101000a900461ffff1661ffff16116104e5576040517f08c379a00000000000000000000000000000000000000000000000000000000081526004016104dc906115f9565b60405180910390fd5b6000808373ffffffffffffffffffffffffffffffffffffffff1673ffffffffffffffffffffffffffffffffffffffff16815260200190815260200160002060010154341015610569576040517f08c379a000000000000000000000000000000000000000000000000000000000815260040161056090611639565b60405180910390fd5b6000600360009054906101000a900473ffffffffffffffffffffffffffffffffffffffff1673ffffffffffffffffffffffffffffffffffffffff16346040516105b1906114aa565b60006040518083038185875af1925050503d80600081146105ee576040519150601f19603f3d011682016040523d82523d6000602084013e6105f3565b606091505b5050905080610637576040517f08c379a000000000000000000000000000000000000000000000000000000000815260040161062e90611679565b60405180910390fd5b60405180606001604052804281526020013481526020018473ffffffffffffffffffffffffffffffffffffffff16815250600160003373ffffffffffffffffffffffffffffffffffffffff1673ffffffffffffffffffffffffffffffffffffffff168152602001908152602001600020600082015181600001556020820151816001015560408201518160020160006101000a81548173ffffffffffffffffffffffffffffffffffffffff021916908373ffffffffffffffffffffffffffffffffffffffff16021790555090505060008060008573ffffffffffffffffffffffffffffffffffffffff1673ffffffffffffffffffffffffffffffffffffffff168152602001908152602001600020905080600001600081819054906101000a900461ffff1680929190610769906118e2565b91906101000a81548161ffff021916908361ffff16021790555050828473ffffffffffffffffffffffffffffffffffffffff163373ffffffffffffffffffffffffffffffffffffffff167f307c4326c27085ecb51073ef9a3bbed079df52a25dd23a12cbe84b4f509055e160405160405180910390a450505050565b6002600083815260200190815260200160002060009054906101000a900460ff1615610846576040517f08c379a000000000000000000000000000000000000000000000000000000000815260040161083d906115b9565b60405180910390fd5b60016002600084815260200190815260200160002060006101000a81548160ff0219169083151502179055506000600160008373ffffffffffffffffffffffffffffffffffffffff1673ffffffffffffffffffffffffffffffffffffffff1681526020019081526020016000206001015414158015610907575083600160008373ffffffffffffffffffffffffffffffffffffffff1673ffffffffffffffffffffffffffffffffffffffff1681526020019081526020016000206001015410155b801561095657506000600160008373ffffffffffffffffffffffffffffffffffffffff1673ffffffffffffffffffffffffffffffffffffffff1681526020019081526020016000206000015414155b610995576040517f08c379a000000000000000000000000000000000000000000000000000000000815260040161098c90611659565b60405180910390fd5b6109c584848484600360009054906101000a900473ffffffffffffffffffffffffffffffffffffffff1633610d46565b610a04576040517f08c379a00000000000000000000000000000000000000000000000000000000081526004016109fb90611699565b60405180910390fd5b60003373ffffffffffffffffffffffffffffffffffffffff1685604051610a2a906114aa565b60006040518083038185875af1925050503d8060008114610a67576040519150601f19603f3d011682016040523d82523d6000602084013e610a6c565b606091505b5050905080610ab0576040517f08c379a0000000000000000000000000000000000000000000000000000000008152600401610aa7906116b9565b60405180910390fd5b60008273ffffffffffffffffffffffffffffffffffffffff1686600160008673ffffffffffffffffffffffffffffffffffffffff1673ffffffffffffffffffffffffffffffffffffffff16815260200190815260200160002060010154610b1791906117e9565b604051610b23906114aa565b60006040518083038185875af1925050503d8060008114610b60576040519150601f19603f3d011682016040523d82523d6000602084013e610b65565b606091505b5050905080610ba9576040517f08c379a0000000000000000000000000000000000000000000000000000000008152600401610ba0906115d9565b60405180910390fd5b60405180606001604052806000815260200160008152602001600073ffffffffffffffffffffffffffffffffffffffff16815250600160008573ffffffffffffffffffffffffffffffffffffffff1673ffffffffffffffffffffffffffffffffffffffff168152602001908152602001600020600082015181600001556020820151816001015560408201518160020160006101000a81548173ffffffffffffffffffffffffffffffffffffffff021916908373ffffffffffffffffffffffffffffffffffffffff16021790555090505060008060003373ffffffffffffffffffffffffffffffffffffffff1673ffffffffffffffffffffffffffffffffffffffff168152602001908152602001600020905080600001600081819054906101000a900461ffff1680929190610cde9061193d565b91906101000a81548161ffff021916908361ffff160217905550503373ffffffffffffffffffffffffffffffffffffffff16857fd683910e149589b4cbae5f933220bbfeaa813cd0b46cd3b57d2172dbe6a30e2360405160405180910390a350505050505050565b60007f8528251299ede771e6157005ad82960c1e78e9118223b095bcd115c01754de496000604051610d78919061157e565b60405180910390a16000610db783898887604051602001610d9c9493929190611436565b60405160208183030381529060405280519060200120610e35565b90507f8528251299ede771e6157005ad82960c1e78e9118223b095bcd115c01754de4981604051610de8919061151e565b60405180910390a18473ffffffffffffffffffffffffffffffffffffffff16610e118289610e65565b73ffffffffffffffffffffffffffffffffffffffff16149150509695505050505050565b600081604051602001610e489190611484565b604051602081830303815290604052805190602001209050919050565b600080600080610e7485610ed4565b92509250925060018684848460405160008152602001604052604051610e9d9493929190611539565b6020604051602081039080840390855afa158015610ebf573d6000803e3d6000fd5b50505060206040510351935050505092915050565b60008060006041845114610f1d576040517f08c379a0000000000000000000000000000000000000000000000000000000008152600401610f1490611599565b60405180910390fd5b6020840151915060408401519050606084015160001a9250601b8360ff161015610f5157601b83610f4e9190611771565b92505b9193909250565b6000610f6b610f6684611719565b6116f4565b905082815260208101848484011115610f8357600080fd5b610f8e8482856118d3565b509392505050565b600081359050610fa581611c61565b92915050565b600081359050610fba81611c78565b92915050565b600082601f830112610fd157600080fd5b8135610fe1848260208601610f58565b91505092915050565b600081359050610ff981611c8f565b92915050565b60008135905061100e81611ca6565b92915050565b60006020828403121561102657600080fd5b600061103484828501610f96565b91505092915050565b6000806040838503121561105057600080fd5b600061105e85828601610fab565b925050602061106f85828601610fff565b9150509250929050565b60008060006060848603121561108e57600080fd5b600061109c86828701610fea565b93505060206110ad86828701610fff565b92505060406110be86828701610fff565b9150509250925092565b600080600080608085870312156110de57600080fd5b60006110ec87828801610fff565b945050602085013567ffffffffffffffff81111561110957600080fd5b61111587828801610fc0565b935050604061112687828801610fff565b925050606061113787828801610fab565b91505092959194509250565b60008060008060008060c0878903121561115c57600080fd5b600061116a89828a01610fff565b965050602087013567ffffffffffffffff81111561118757600080fd5b61119389828a01610fc0565b95505060406111a489828a01610fff565b94505060606111b589828a01610f96565b93505060806111c689828a01610f96565b92505060a06111d789828a01610f96565b9150509295509295509295565b6111ed8161181d565b82525050565b6112046111ff8261181d565b611968565b82525050565b61121381611841565b82525050565b6112228161184d565b82525050565b6112396112348261184d565b61197a565b82525050565b611248816118b9565b82525050565b600061125b601c83611766565b915061126682611a29565b601c82019050919050565b600061127e601b83611755565b915061128982611a52565b602082019050919050565b60006112a1601983611755565b91506112ac82611a7b565b602082019050919050565b60006112c4602683611755565b91506112cf82611aa4565b604082019050919050565b60006112e7601a83611755565b91506112f282611af3565b602082019050919050565b600061130a601183611755565b915061131582611b1c565b602082019050919050565b600061132d602183611755565b915061133882611b45565b604082019050919050565b6000611350601583611755565b915061135b82611b94565b602082019050919050565b6000611373601b83611755565b915061137e82611bbd565b602082019050919050565b6000611396601583611755565b91506113a182611be6565b602082019050919050565b60006113b960008361174a565b91506113c482611c0f565b600082019050919050565b60006113dc602483611755565b91506113e782611c12565b604082019050919050565b6113fb81611861565b82525050565b61140a8161188f565b82525050565b61142161141c8261188f565b611996565b82525050565b611430816118ac565b82525050565b600061144282876111f3565b6014820191506114528286611410565b6020820191506114628285611410565b60208201915061147282846111f3565b60148201915081905095945050505050565b600061148f8261124e565b915061149b8284611228565b60208201915081905092915050565b60006114b5826113ac565b9150819050919050565b60006020820190506114d460008301846111e4565b92915050565b60006040820190506114ef60008301856111e4565b6114fc6020830184611401565b9392505050565b6000602082019050611518600083018461120a565b92915050565b60006020820190506115336000830184611219565b92915050565b600060808201905061154e6000830187611219565b61155b6020830186611427565b6115686040830185611219565b6115756060830184611219565b95945050505050565b6000602082019050611593600083018461123f565b92915050565b600060208201905081810360008301526115b281611271565b9050919050565b600060208201905081810360008301526115d281611294565b9050919050565b600060208201905081810360008301526115f2816112b7565b9050919050565b60006020820190508181036000830152611612816112da565b9050919050565b60006020820190508181036000830152611632816112fd565b9050919050565b6000602082019050818103600083015261165281611320565b9050919050565b6000602082019050818103600083015261167281611343565b9050919050565b6000602082019050818103600083015261169281611366565b9050919050565b600060208201905081810360008301526116b281611389565b9050919050565b600060208201905081810360008301526116d2816113cf565b9050919050565b60006020820190506116ee60008301846113f2565b92915050565b60006116fe61170f565b905061170a828261190c565b919050565b6000604051905090565b600067ffffffffffffffff821115611734576117336119cf565b5b61173d826119fe565b9050602081019050919050565b600081905092915050565b600082825260208201905092915050565b600081905092915050565b600061177c826118ac565b9150611787836118ac565b92508260ff0382111561179d5761179c6119a0565b5b828201905092915050565b60006117b382611899565b91506117be83611899565b92508166ffffffffffffff04831182151516156117de576117dd6119a0565b5b828202905092915050565b60006117f48261188f565b91506117ff8361188f565b925082821015611812576118116119a0565b5b828203905092915050565b60006118288261186f565b9050919050565b600061183a8261186f565b9050919050565b60008115159050919050565b6000819050919050565b6000819050919050565b600061ffff82169050919050565b600073ffffffffffffffffffffffffffffffffffffffff82169050919050565b6000819050919050565b600066ffffffffffffff82169050919050565b600060ff82169050919050565b60006118cc6118c783611857565b611a0f565b9050919050565b82818337600083830152505050565b60006118ed82611861565b91506000821415611901576119006119a0565b5b600182039050919050565b611915826119fe565b810181811067ffffffffffffffff82111715611934576119336119cf565b5b80604052505050565b600061194882611861565b915061ffff82141561195d5761195c6119a0565b5b600182019050919050565b600061197382611984565b9050919050565b6000819050919050565b600061198f82611a1c565b9050919050565b6000819050919050565b7f4e487b7100000000000000000000000000000000000000000000000000000000600052601160045260246000fd5b7f4e487b7100000000000000000000000000000000000000000000000000000000600052604160045260246000fd5b6000601f19601f8301169050919050565b60008160001b9050919050565b60008160601b9050919050565b7f19457468657265756d205369676e6564204d6573736167653a0a333200000000600082015250565b7f5369676e617475726520697320696e76616c6964206c656e6774680000000000600082015250565b7f4e6f6e636520616c72656164792075736564206265666f726500000000000000600082015250565b7f72656d61696e696e672066756e6473206e6f742072657475726e656420746f2060008201527f7061726b65720000000000000000000000000000000000000000000000000000602082015250565b7f4e6f2066726565207061726b696e67207370616365206c656674000000000000600082015250565b7f6e6f7420656e6f756768206d6f6e657920000000000000000000000000000000600082015250565b7f4e6f7420656e6f7567682066756e647320746f20656e746572207061726b696e60008201527f6700000000000000000000000000000000000000000000000000000000000000602082015250565b7f7061726b6572206e6f7420696e207061726b696e670000000000000000000000600082015250565b7f616d6f756e74206e6f742073656e7420746f20636f6e74726163740000000000600082015250565b7f6e6f7420612076616c6964207369676e61747572650000000000000000000000600082015250565b50565b7f66756e6473206e6f74207265636569766564206279207061726b696e6720737960008201527f7374656d00000000000000000000000000000000000000000000000000000000602082015250565b611c6a8161181d565b8114611c7557600080fd5b50565b611c818161182f565b8114611c8c57600080fd5b50565b611c9881611861565b8114611ca357600080fd5b50565b611caf8161188f565b8114611cba57600080fd5b5056fea26469706673582212207718cf3e89a88a41c08ba05123754d66ca14d638eecc348b3cfce8b74051d0cf64736f6c63430008040033",
  "immutableReferences": {},
  "source": "//SPDX-License-Identifier: MIT\r\n\r\npragma solidity >0.6.0;\r\nimport \"./ParkingSystem.sol\";\r\n\r\ncontract ParkerFunctions is ParkingSystem {\r\n    constructor() payable {\r\n        contractAddress = address(this);\r\n    }\r\n\r\n    event EnterParking(\r\n        address indexed client,\r\n        address indexed owner,\r\n        uint256 indexed nonce\r\n    );\r\n    event ClaimFunds(uint256 indexed nonce, address indexed owner);\r\n\r\n    function numberOfFreeParkings(address _owner) public view returns (uint16) {\r\n        return ownersList[_owner].numOfParkings;\r\n    }\r\n\r\n    function enterParking(address payable _owner, uint256 _nonce)\r\n        external\r\n        payable\r\n    {\r\n        require(\r\n            ownersList[_owner].numOfParkings > 0,\r\n            \"No free parking space left\"\r\n        );\r\n        require(\r\n            msg.value >= ownersList[_owner].billAmt,\r\n            \"Not enough funds to enter parking\"\r\n        );\r\n        (bool sent, ) = payable(contractAddress).call{value: msg.value}(\"\");\r\n        require(sent, \"amount not sent to contract\");\r\n        parkersList[msg.sender] = ParkerInfo({\r\n            inTime: block.timestamp,\r\n            maxValue: msg.value,\r\n            owner: _owner\r\n        });\r\n        ParkingInfo storage parkOwner = ownersList[_owner];\r\n        parkOwner.numOfParkings--;\r\n        emit EnterParking(msg.sender, _owner, _nonce);\r\n    }\r\n\r\n    function claimFunds(\r\n        uint256 _amount,\r\n        bytes memory _signature,\r\n        uint256 _nonce,\r\n        address payable _sender\r\n    ) external payable {\r\n        require(!usedNonces[_nonce], \"Nonce already used before\");\r\n        usedNonces[_nonce] = true;\r\n        require(\r\n            parkersList[_sender].maxValue != 0 &&\r\n                parkersList[_sender].maxValue >= _amount &&\r\n                parkersList[_sender].inTime != 0,\r\n            \"parker not in parking\"\r\n        );\r\n        require(\r\n            isValidSignature(\r\n                _amount,\r\n                _signature,\r\n                _nonce,\r\n                _sender,\r\n                contractAddress,\r\n                msg.sender\r\n            ),\r\n            \"not a valid signature\"\r\n        );\r\n        (bool sent1, ) = payable(msg.sender).call{value: _amount}(\"\");\r\n        require(sent1, \"funds not received by parking system\");\r\n        (bool sent2, ) = _sender.call{\r\n            value: parkersList[_sender].maxValue - _amount\r\n        }(\"\");\r\n        require(sent2, \"remaining funds not returned to parker\");\r\n        parkersList[_sender] = ParkerInfo({\r\n            inTime: 0,\r\n            maxValue: 0,\r\n            owner: payable(address(0))\r\n        });\r\n        ParkingInfo storage parkOwner = ownersList[msg.sender];\r\n        parkOwner.numOfParkings++;\r\n        emit ClaimFunds(_nonce, msg.sender);\r\n    }\r\n\r\n    function getAddress() public view returns (address) {\r\n        return contractAddress;\r\n    }\r\n}\r\n",
  "sourcePath": "C:\\Projects\\Blockchain\\smart-parking-system\\contracts\\ParkerFunctions.sol",
  "compiler": {
    "name": "solc",
    "version": "0.8.4+commit.c7e474f2.Emscripten.clang"
  },
  "schemaVersion": "3.4.6",
  "updatedAt": "2022-08-23T18:39:59.429Z",
  "networkType": "ethereum",
  "devdoc": {
    "kind": "dev",
    "methods": {},
    "version": 1
  },
  "userdoc": {
    "kind": "user",
    "methods": {},
    "version": 1
  }
}