{
  "contractName": "ParkingSystem",
  "abi": [
    {
      "inputs": [],
      "stateMutability": "payable",
      "type": "constructor"
    },
    {
      "anonymous": false,
      "inputs": [
        {
          "indexed": false,
          "internalType": "bytes32",
          "name": "",
          "type": "bytes32"
        }
      ],
      "name": "Print",
      "type": "event"
    },
    {
      "anonymous": false,
      "inputs": [
        {
          "indexed": false,
          "internalType": "address",
          "name": "user",
          "type": "address"
        },
        {
          "indexed": false,
          "internalType": "uint256",
          "name": "amount",
          "type": "uint256"
        }
      ],
      "name": "ValueReceived",
      "type": "event"
    },
    {
      "stateMutability": "payable",
      "type": "fallback"
    },
    {
      "inputs": [
        {
          "internalType": "uint256",
          "name": "amount",
          "type": "uint256"
        },
        {
          "internalType": "bytes",
          "name": "signature",
          "type": "bytes"
        },
        {
          "internalType": "uint256",
          "name": "nonce",
          "type": "uint256"
        },
        {
          "internalType": "address",
          "name": "sender",
          "type": "address"
        },
        {
          "internalType": "address",
          "name": "contractAddress",
          "type": "address"
        },
        {
          "internalType": "address",
          "name": "_receiver",
          "type": "address"
        }
      ],
      "name": "isMatchingSignature",
      "outputs": [
        {
          "internalType": "bool",
          "name": "",
          "type": "bool"
        }
      ],
      "stateMutability": "nonpayable",
      "type": "function"
    },
    {
      "stateMutability": "payable",
      "type": "receive"
    },
    {
      "inputs": [
        {
          "internalType": "uint16",
          "name": "_numOfParking",
          "type": "uint16"
        },
        {
          "internalType": "uint256",
          "name": "_billAmt",
          "type": "uint256"
        },
        {
          "internalType": "uint256",
          "name": "_timeout",
          "type": "uint256"
        }
      ],
      "name": "registerParking",
      "outputs": [],
      "stateMutability": "payable",
      "type": "function"
    },
    {
      "inputs": [
        {
          "internalType": "address",
          "name": "_owner",
          "type": "address"
        }
      ],
      "name": "checkIfOwnerExists",
      "outputs": [
        {
          "internalType": "bool",
          "name": "",
          "type": "bool"
        }
      ],
      "stateMutability": "view",
      "type": "function"
    }
  ],
  "bytecode": "0x608060405230600360006101000a81548173ffffffffffffffffffffffffffffffffffffffff021916908373ffffffffffffffffffffffffffffffffffffffff160217905550610c20806100546000396000f3fe6080604052600436106100385760003560e01c80633c0373131461007a5780634dce938a146100965780637bfc544a146100d357610078565b36610078577f7e71433ddf847725166244795048ecf3e3f9f35628254ecbf736056664233493333460405161006e9291906107e5565b60405180910390a1005b005b610094600480360381019061008f919061059c565b610110565b005b3480156100a257600080fd5b506100bd60048036038101906100b89190610573565b610240565b6040516100ca919061080e565b60405180910390f35b3480156100df57600080fd5b506100fa60048036038101906100f591906105eb565b61029e565b604051610107919061080e565b60405180910390f35b66038d7ea4c680008361ffff16610127919061096d565b66ffffffffffffff16341461013b57600080fd5b600360009054906101000a900473ffffffffffffffffffffffffffffffffffffffff1673ffffffffffffffffffffffffffffffffffffffff166108fc349081150290604051600060405180830381858888f193505050501580156101a3573d6000803e3d6000fd5b5060405180606001604052808461ffff168152602001838152602001828152506000803373ffffffffffffffffffffffffffffffffffffffff1673ffffffffffffffffffffffffffffffffffffffff16815260200190815260200160002060008201518160000160006101000a81548161ffff021916908361ffff1602179055506020820151816001015560408201518160020155905050505050565b6000806000808473ffffffffffffffffffffffffffffffffffffffff1673ffffffffffffffffffffffffffffffffffffffff1681526020019081526020016000206001015411156102945760019050610299565b600090505b919050565b60006102ae8787878787876102ba565b90509695505050505050565b60007f8528251299ede771e6157005ad82960c1e78e9118223b095bcd115c01754de4960006040516102ec9190610889565b60405180910390a1600061032b838988876040516020016103109493929190610771565b604051602081830303815290604052805190602001206103a9565b90507f8528251299ede771e6157005ad82960c1e78e9118223b095bcd115c01754de498160405161035c9190610829565b60405180910390a18473ffffffffffffffffffffffffffffffffffffffff1661038582896103d9565b73ffffffffffffffffffffffffffffffffffffffff16149150509695505050505050565b6000816040516020016103bc91906107bf565b604051602081830303815290604052805190602001209050919050565b6000806000806103e885610448565b925092509250600186848484604051600081526020016040526040516104119493929190610844565b6020604051602081039080840390855afa158015610433573d6000803e3d6000fd5b50505060206040510351935050505092915050565b60008060006041845114610491576040517f08c379a0000000000000000000000000000000000000000000000000000000008152600401610488906108a4565b60405180910390fd5b6020840151915060408401519050606084015160001a9250601b8360ff1610156104c557601b836104c29190610936565b92505b9193909250565b60006104df6104da846108e9565b6108c4565b9050828152602081018484840111156104f757600080fd5b610502848285610a52565b509392505050565b60008135905061051981610ba5565b92915050565b600082601f83011261053057600080fd5b81356105408482602086016104cc565b91505092915050565b60008135905061055881610bbc565b92915050565b60008135905061056d81610bd3565b92915050565b60006020828403121561058557600080fd5b60006105938482850161050a565b91505092915050565b6000806000606084860312156105b157600080fd5b60006105bf86828701610549565b93505060206105d08682870161055e565b92505060406105e18682870161055e565b9150509250925092565b60008060008060008060c0878903121561060457600080fd5b600061061289828a0161055e565b965050602087013567ffffffffffffffff81111561062f57600080fd5b61063b89828a0161051f565b955050604061064c89828a0161055e565b945050606061065d89828a0161050a565b935050608061066e89828a0161050a565b92505060a061067f89828a0161050a565b9150509295509295509295565b610695816109ae565b82525050565b6106ac6106a7826109ae565b610a92565b82525050565b6106bb816109c0565b82525050565b6106ca816109cc565b82525050565b6106e16106dc826109cc565b610aa4565b82525050565b6106f081610a38565b82525050565b6000610703601c8361092b565b915061070e82610b53565b601c82019050919050565b6000610726601b8361091a565b915061073182610b7c565b602082019050919050565b61074581610a0e565b82525050565b61075c61075782610a0e565b610ac0565b82525050565b61076b81610a2b565b82525050565b600061077d828761069b565b60148201915061078d828661074b565b60208201915061079d828561074b565b6020820191506107ad828461069b565b60148201915081905095945050505050565b60006107ca826106f6565b91506107d682846106d0565b60208201915081905092915050565b60006040820190506107fa600083018561068c565b610807602083018461073c565b9392505050565b600060208201905061082360008301846106b2565b92915050565b600060208201905061083e60008301846106c1565b92915050565b600060808201905061085960008301876106c1565b6108666020830186610762565b61087360408301856106c1565b61088060608301846106c1565b95945050505050565b600060208201905061089e60008301846106e7565b92915050565b600060208201905081810360008301526108bd81610719565b9050919050565b60006108ce6108df565b90506108da8282610a61565b919050565b6000604051905090565b600067ffffffffffffffff82111561090457610903610af9565b5b61090d82610b28565b9050602081019050919050565b600082825260208201905092915050565b600081905092915050565b600061094182610a2b565b915061094c83610a2b565b92508260ff0382111561096257610961610aca565b5b828201905092915050565b600061097882610a18565b915061098383610a18565b92508166ffffffffffffff04831182151516156109a3576109a2610aca565b5b828202905092915050565b60006109b9826109ee565b9050919050565b60008115159050919050565b6000819050919050565b6000819050919050565b600061ffff82169050919050565b600073ffffffffffffffffffffffffffffffffffffffff82169050919050565b6000819050919050565b600066ffffffffffffff82169050919050565b600060ff82169050919050565b6000610a4b610a46836109d6565b610b39565b9050919050565b82818337600083830152505050565b610a6a82610b28565b810181811067ffffffffffffffff82111715610a8957610a88610af9565b5b80604052505050565b6000610a9d82610aae565b9050919050565b6000819050919050565b6000610ab982610b46565b9050919050565b6000819050919050565b7f4e487b7100000000000000000000000000000000000000000000000000000000600052601160045260246000fd5b7f4e487b7100000000000000000000000000000000000000000000000000000000600052604160045260246000fd5b6000601f19601f8301169050919050565b60008160001b9050919050565b60008160601b9050919050565b7f19457468657265756d205369676e6564204d6573736167653a0a333200000000600082015250565b7f5369676e617475726520697320696e76616c6964206c656e6774680000000000600082015250565b610bae816109ae565b8114610bb957600080fd5b50565b610bc5816109e0565b8114610bd057600080fd5b50565b610bdc81610a0e565b8114610be757600080fd5b5056fea2646970667358221220dc891b888d80bb42db9304ba3955047851022904eefeacfd872063d55d62efe964736f6c63430008040033",
  "immutableReferences": {},
  "source": "// SPDX-License-Identifier: MIT\r\n\r\npragma solidity >=0.5.1;\r\nimport \"./SigCheck.sol\";\r\n\r\ncontract ParkingSystem is SigCheck {\r\n    struct ParkerInfo {\r\n        uint256 inTime;\r\n        uint256 maxValue;\r\n        address payable owner;\r\n    }\r\n    struct ParkingInfo {\r\n        uint16 numOfParkings;\r\n        uint256 billAmt;\r\n        uint256 timeout;\r\n    }\r\n    mapping(address => ParkingInfo) ownersList;\r\n    mapping(address => ParkerInfo) parkersList;\r\n    mapping(uint256 => bool) usedNonces;\r\n    address contractAddress;\r\n\r\n    constructor() payable {\r\n        contractAddress = address(this);\r\n    }\r\n\r\n    function registerParking(\r\n        uint16 _numOfParking,\r\n        uint256 _billAmt,\r\n        uint256 _timeout\r\n    ) external payable {\r\n        require(msg.value == _numOfParking * 0.001 ether);\r\n        payable(contractAddress).transfer(msg.value);\r\n        ownersList[msg.sender] = ParkingInfo(_numOfParking, _billAmt, _timeout);\r\n    }\r\n\r\n    function checkIfOwnerExists(address _owner) public view returns (bool) {\r\n        if (ownersList[_owner].billAmt > 0) {\r\n            return true;\r\n        }\r\n        return false;\r\n    }\r\n}\r\n",
  "sourcePath": "C:\\Projects\\Blockchain\\smart-parking-system\\contracts\\ParkingSystem.sol",
  "compiler": {
    "name": "solc",
    "version": "0.8.4+commit.c7e474f2.Emscripten.clang"
  },
  "schemaVersion": "3.4.6",
  "updatedAt": "2022-05-25T18:08:48.884Z",
  "devdoc": {
    "kind": "dev",
    "methods": {},
    "version": 1
  },
  "userdoc": {
    "kind": "user",
    "methods": {},
    "version": 1
  }
}