{
  "contractName": "ParkerFunctions",
  "abi": [
    {
      "inputs": [],
      "stateMutability": "payable",
      "type": "constructor",
      "payable": true
    },
    {
      "anonymous": false,
      "inputs": [
        {
          "indexed": false,
          "internalType": "bytes32",
          "name": "",
          "type": "bytes32"
        }
      ],
      "name": "Print",
      "type": "event"
    },
    {
      "anonymous": false,
      "inputs": [
        {
          "indexed": false,
          "internalType": "address",
          "name": "user",
          "type": "address"
        },
        {
          "indexed": false,
          "internalType": "uint256",
          "name": "amount",
          "type": "uint256"
        }
      ],
      "name": "ValueReceived",
      "type": "event"
    },
    {
      "stateMutability": "payable",
      "type": "fallback",
      "payable": true
    },
    {
      "inputs": [
        {
          "internalType": "address",
          "name": "_owner",
          "type": "address"
        }
      ],
      "name": "checkIfOwnerExists",
      "outputs": [
        {
          "internalType": "bool",
          "name": "",
          "type": "bool"
        }
      ],
      "stateMutability": "view",
      "type": "function",
      "constant": true
    },
    {
      "inputs": [
        {
          "internalType": "uint256",
          "name": "amount",
          "type": "uint256"
        },
        {
          "internalType": "bytes",
          "name": "signature",
          "type": "bytes"
        },
        {
          "internalType": "uint256",
          "name": "nonce",
          "type": "uint256"
        },
        {
          "internalType": "address",
          "name": "sender",
          "type": "address"
        },
        {
          "internalType": "address",
          "name": "contractAddress",
          "type": "address"
        },
        {
          "internalType": "address",
          "name": "_receiver",
          "type": "address"
        }
      ],
      "name": "isMatchingSignature",
      "outputs": [
        {
          "internalType": "bool",
          "name": "",
          "type": "bool"
        }
      ],
      "stateMutability": "nonpayable",
      "type": "function"
    },
    {
      "inputs": [
        {
          "internalType": "uint16",
          "name": "_numOfParking",
          "type": "uint16"
        },
        {
          "internalType": "uint256",
          "name": "_billAmt",
          "type": "uint256"
        },
        {
          "internalType": "uint256",
          "name": "_timeout",
          "type": "uint256"
        }
      ],
      "name": "registerParking",
      "outputs": [],
      "stateMutability": "payable",
      "type": "function",
      "payable": true
    },
    {
      "stateMutability": "payable",
      "type": "receive",
      "payable": true
    },
    {
      "inputs": [
        {
          "internalType": "address",
          "name": "_owner",
          "type": "address"
        }
      ],
      "name": "numberOfFreeParkings",
      "outputs": [
        {
          "internalType": "uint16",
          "name": "",
          "type": "uint16"
        }
      ],
      "stateMutability": "view",
      "type": "function",
      "constant": true
    },
    {
      "inputs": [
        {
          "internalType": "address payable",
          "name": "_owner",
          "type": "address"
        }
      ],
      "name": "enterParking",
      "outputs": [],
      "stateMutability": "payable",
      "type": "function",
      "payable": true
    },
    {
      "inputs": [
        {
          "internalType": "uint256",
          "name": "_amount",
          "type": "uint256"
        },
        {
          "internalType": "bytes",
          "name": "_signature",
          "type": "bytes"
        },
        {
          "internalType": "uint256",
          "name": "_nonce",
          "type": "uint256"
        },
        {
          "internalType": "address payable",
          "name": "_sender",
          "type": "address"
        }
      ],
      "name": "claimFunds",
      "outputs": [],
      "stateMutability": "payable",
      "type": "function",
      "payable": true
    },
    {
      "inputs": [],
      "name": "getAddress",
      "outputs": [
        {
          "internalType": "address",
          "name": "",
          "type": "address"
        }
      ],
      "stateMutability": "view",
      "type": "function",
      "constant": true
    }
  ],
  "bytecode": "0x608060405230600360006101000a81548173ffffffffffffffffffffffffffffffffffffffff021916908373ffffffffffffffffffffffffffffffffffffffff160217905550611c06806100546000396000f3fe6080604052600436106100745760003560e01c80633c0373131161004e5780633c0373131461013a5780634dce938a146101565780637bfc544a14610193578063cac246ae146101d0576100b4565b806312cdc6ad146100b657806316135938146100f357806338cc48311461010f576100b4565b366100b4577f7e71433ddf847725166244795048ecf3e3f9f35628254ecbf73605666423349333346040516100aa9291906113ed565b60405180910390a1005b005b3480156100c257600080fd5b506100dd60048036038101906100d89190610f3a565b6101ec565b6040516100ea91906115ec565b60405180910390f35b61010d60048036038101906101089190610f63565b610245565b005b34801561011b57600080fd5b50610124610545565b60405161013191906113d2565b60405180910390f35b610154600480360381019061014f9190610f8c565b61056f565b005b34801561016257600080fd5b5061017d60048036038101906101789190610f3a565b6106d5565b60405161018a9190611416565b60405180910390f35b34801561019f57600080fd5b506101ba60048036038101906101b59190611056565b610733565b6040516101c79190611416565b60405180910390f35b6101ea60048036038101906101e59190610fdb565b61074f565b005b60008060008373ffffffffffffffffffffffffffffffffffffffff1673ffffffffffffffffffffffffffffffffffffffff16815260200190815260200160002060000160009054906101000a900461ffff169050919050565b60008060008373ffffffffffffffffffffffffffffffffffffffff1673ffffffffffffffffffffffffffffffffffffffff16815260200190815260200160002060000160009054906101000a900461ffff1661ffff16116102db576040517f08c379a00000000000000000000000000000000000000000000000000000000081526004016102d29061150c565b60405180910390fd5b66b1a2bc2ec50000341015610325576040517f08c379a000000000000000000000000000000000000000000000000000000000815260040161031c9061154c565b60405180910390fd5b6000600360009054906101000a900473ffffffffffffffffffffffffffffffffffffffff1673ffffffffffffffffffffffffffffffffffffffff163460405161036d906113bd565b60006040518083038185875af1925050503d80600081146103aa576040519150601f19603f3d011682016040523d82523d6000602084013e6103af565b606091505b50509050806103f3576040517f08c379a00000000000000000000000000000000000000000000000000000000081526004016103ea9061158c565b60405180910390fd5b60405180606001604052804281526020013481526020018373ffffffffffffffffffffffffffffffffffffffff16815250600160003373ffffffffffffffffffffffffffffffffffffffff1673ffffffffffffffffffffffffffffffffffffffff168152602001908152602001600020600082015181600001556020820151816001015560408201518160020160006101000a81548173ffffffffffffffffffffffffffffffffffffffff021916908373ffffffffffffffffffffffffffffffffffffffff16021790555090505060008060008473ffffffffffffffffffffffffffffffffffffffff1673ffffffffffffffffffffffffffffffffffffffff168152602001908152602001600020905080600001600081819054906101000a900461ffff1680929190610525906117f5565b91906101000a81548161ffff021916908361ffff16021790555050505050565b6000600360009054906101000a900473ffffffffffffffffffffffffffffffffffffffff16905090565b66038d7ea4c680008361ffff1661058691906116bb565b66ffffffffffffff1634146105d0576040517f08c379a00000000000000000000000000000000000000000000000000000000081526004016105c79061152c565b60405180910390fd5b600360009054906101000a900473ffffffffffffffffffffffffffffffffffffffff1673ffffffffffffffffffffffffffffffffffffffff166108fc349081150290604051600060405180830381858888f19350505050158015610638573d6000803e3d6000fd5b5060405180606001604052808461ffff168152602001838152602001828152506000803373ffffffffffffffffffffffffffffffffffffffff1673ffffffffffffffffffffffffffffffffffffffff16815260200190815260200160002060008201518160000160006101000a81548161ffff021916908361ffff1602179055506020820151816001015560408201518160020155905050505050565b6000806000808473ffffffffffffffffffffffffffffffffffffffff1673ffffffffffffffffffffffffffffffffffffffff168152602001908152602001600020600101541115610729576001905061072e565b600090505b919050565b6000610743878787878787610c6c565b90509695505050505050565b6002600083815260200190815260200160002060009054906101000a900460ff16156107b0576040517f08c379a00000000000000000000000000000000000000000000000000000000081526004016107a7906114cc565b60405180910390fd5b60016002600084815260200190815260200160002060006101000a81548160ff0219169083151502179055506000600160008373ffffffffffffffffffffffffffffffffffffffff1673ffffffffffffffffffffffffffffffffffffffff1681526020019081526020016000206001015414158015610871575083600160008373ffffffffffffffffffffffffffffffffffffffff1673ffffffffffffffffffffffffffffffffffffffff1681526020019081526020016000206001015410155b80156108c057506000600160008373ffffffffffffffffffffffffffffffffffffffff1673ffffffffffffffffffffffffffffffffffffffff1681526020019081526020016000206000015414155b6108ff576040517f08c379a00000000000000000000000000000000000000000000000000000000081526004016108f69061156c565b60405180910390fd5b61092f84848484600360009054906101000a900473ffffffffffffffffffffffffffffffffffffffff1633610c6c565b61096e576040517f08c379a0000000000000000000000000000000000000000000000000000000008152600401610965906115ac565b60405180910390fd5b60003373ffffffffffffffffffffffffffffffffffffffff1685604051610994906113bd565b60006040518083038185875af1925050503d80600081146109d1576040519150601f19603f3d011682016040523d82523d6000602084013e6109d6565b606091505b5050905080610a1a576040517f08c379a0000000000000000000000000000000000000000000000000000000008152600401610a11906115cc565b60405180910390fd5b60008273ffffffffffffffffffffffffffffffffffffffff1686600160008673ffffffffffffffffffffffffffffffffffffffff1673ffffffffffffffffffffffffffffffffffffffff16815260200190815260200160002060010154610a8191906116fc565b604051610a8d906113bd565b60006040518083038185875af1925050503d8060008114610aca576040519150601f19603f3d011682016040523d82523d6000602084013e610acf565b606091505b5050905080610b13576040517f08c379a0000000000000000000000000000000000000000000000000000000008152600401610b0a906114ec565b60405180910390fd5b60405180606001604052806000815260200160008152602001600073ffffffffffffffffffffffffffffffffffffffff16815250600160008573ffffffffffffffffffffffffffffffffffffffff1673ffffffffffffffffffffffffffffffffffffffff168152602001908152602001600020600082015181600001556020820151816001015560408201518160020160006101000a81548173ffffffffffffffffffffffffffffffffffffffff021916908373ffffffffffffffffffffffffffffffffffffffff16021790555090505060008060003373ffffffffffffffffffffffffffffffffffffffff1673ffffffffffffffffffffffffffffffffffffffff168152602001908152602001600020905080600001600081819054906101000a900461ffff1680929190610c4890611850565b91906101000a81548161ffff021916908361ffff1602179055505050505050505050565b60007f8528251299ede771e6157005ad82960c1e78e9118223b095bcd115c01754de496000604051610c9e9190611491565b60405180910390a16000610cdd83898887604051602001610cc29493929190611349565b60405160208183030381529060405280519060200120610d5b565b90507f8528251299ede771e6157005ad82960c1e78e9118223b095bcd115c01754de4981604051610d0e9190611431565b60405180910390a18473ffffffffffffffffffffffffffffffffffffffff16610d378289610d8b565b73ffffffffffffffffffffffffffffffffffffffff16149150509695505050505050565b600081604051602001610d6e9190611397565b604051602081830303815290604052805190602001209050919050565b600080600080610d9a85610dfa565b92509250925060018684848460405160008152602001604052604051610dc3949392919061144c565b6020604051602081039080840390855afa158015610de5573d6000803e3d6000fd5b50505060206040510351935050505092915050565b60008060006041845114610e43576040517f08c379a0000000000000000000000000000000000000000000000000000000008152600401610e3a906114ac565b60405180910390fd5b6020840151915060408401519050606084015160001a9250601b8360ff161015610e7757601b83610e749190611684565b92505b9193909250565b6000610e91610e8c8461162c565b611607565b905082815260208101848484011115610ea957600080fd5b610eb48482856117e6565b509392505050565b600081359050610ecb81611b74565b92915050565b600081359050610ee081611b8b565b92915050565b600082601f830112610ef757600080fd5b8135610f07848260208601610e7e565b91505092915050565b600081359050610f1f81611ba2565b92915050565b600081359050610f3481611bb9565b92915050565b600060208284031215610f4c57600080fd5b6000610f5a84828501610ebc565b91505092915050565b600060208284031215610f7557600080fd5b6000610f8384828501610ed1565b91505092915050565b600080600060608486031215610fa157600080fd5b6000610faf86828701610f10565b9350506020610fc086828701610f25565b9250506040610fd186828701610f25565b9150509250925092565b60008060008060808587031215610ff157600080fd5b6000610fff87828801610f25565b945050602085013567ffffffffffffffff81111561101c57600080fd5b61102887828801610ee6565b935050604061103987828801610f25565b925050606061104a87828801610ed1565b91505092959194509250565b60008060008060008060c0878903121561106f57600080fd5b600061107d89828a01610f25565b965050602087013567ffffffffffffffff81111561109a57600080fd5b6110a689828a01610ee6565b95505060406110b789828a01610f25565b94505060606110c889828a01610ebc565b93505060806110d989828a01610ebc565b92505060a06110ea89828a01610ebc565b9150509295509295509295565b61110081611730565b82525050565b61111761111282611730565b61187b565b82525050565b61112681611754565b82525050565b61113581611760565b82525050565b61114c61114782611760565b61188d565b82525050565b61115b816117cc565b82525050565b600061116e601c83611679565b91506111798261193c565b601c82019050919050565b6000611191601b83611668565b915061119c82611965565b602082019050919050565b60006111b4601983611668565b91506111bf8261198e565b602082019050919050565b60006111d7602683611668565b91506111e2826119b7565b604082019050919050565b60006111fa601a83611668565b915061120582611a06565b602082019050919050565b600061121d601183611668565b915061122882611a2f565b602082019050919050565b6000611240602183611668565b915061124b82611a58565b604082019050919050565b6000611263601583611668565b915061126e82611aa7565b602082019050919050565b6000611286601b83611668565b915061129182611ad0565b602082019050919050565b60006112a9601583611668565b91506112b482611af9565b602082019050919050565b60006112cc60008361165d565b91506112d782611b22565b600082019050919050565b60006112ef602483611668565b91506112fa82611b25565b604082019050919050565b61130e81611774565b82525050565b61131d816117a2565b82525050565b61133461132f826117a2565b6118a9565b82525050565b611343816117bf565b82525050565b60006113558287611106565b6014820191506113658286611323565b6020820191506113758285611323565b6020820191506113858284611106565b60148201915081905095945050505050565b60006113a282611161565b91506113ae828461113b565b60208201915081905092915050565b60006113c8826112bf565b9150819050919050565b60006020820190506113e760008301846110f7565b92915050565b600060408201905061140260008301856110f7565b61140f6020830184611314565b9392505050565b600060208201905061142b600083018461111d565b92915050565b6000602082019050611446600083018461112c565b92915050565b6000608082019050611461600083018761112c565b61146e602083018661133a565b61147b604083018561112c565b611488606083018461112c565b95945050505050565b60006020820190506114a66000830184611152565b92915050565b600060208201905081810360008301526114c581611184565b9050919050565b600060208201905081810360008301526114e5816111a7565b9050919050565b60006020820190508181036000830152611505816111ca565b9050919050565b60006020820190508181036000830152611525816111ed565b9050919050565b6000602082019050818103600083015261154581611210565b9050919050565b6000602082019050818103600083015261156581611233565b9050919050565b6000602082019050818103600083015261158581611256565b9050919050565b600060208201905081810360008301526115a581611279565b9050919050565b600060208201905081810360008301526115c58161129c565b9050919050565b600060208201905081810360008301526115e5816112e2565b9050919050565b60006020820190506116016000830184611305565b92915050565b6000611611611622565b905061161d828261181f565b919050565b6000604051905090565b600067ffffffffffffffff821115611647576116466118e2565b5b61165082611911565b9050602081019050919050565b600081905092915050565b600082825260208201905092915050565b600081905092915050565b600061168f826117bf565b915061169a836117bf565b92508260ff038211156116b0576116af6118b3565b5b828201905092915050565b60006116c6826117ac565b91506116d1836117ac565b92508166ffffffffffffff04831182151516156116f1576116f06118b3565b5b828202905092915050565b6000611707826117a2565b9150611712836117a2565b925082821015611725576117246118b3565b5b828203905092915050565b600061173b82611782565b9050919050565b600061174d82611782565b9050919050565b60008115159050919050565b6000819050919050565b6000819050919050565b600061ffff82169050919050565b600073ffffffffffffffffffffffffffffffffffffffff82169050919050565b6000819050919050565b600066ffffffffffffff82169050919050565b600060ff82169050919050565b60006117df6117da8361176a565b611922565b9050919050565b82818337600083830152505050565b600061180082611774565b91506000821415611814576118136118b3565b5b600182039050919050565b61182882611911565b810181811067ffffffffffffffff82111715611847576118466118e2565b5b80604052505050565b600061185b82611774565b915061ffff8214156118705761186f6118b3565b5b600182019050919050565b600061188682611897565b9050919050565b6000819050919050565b60006118a28261192f565b9050919050565b6000819050919050565b7f4e487b7100000000000000000000000000000000000000000000000000000000600052601160045260246000fd5b7f4e487b7100000000000000000000000000000000000000000000000000000000600052604160045260246000fd5b6000601f19601f8301169050919050565b60008160001b9050919050565b60008160601b9050919050565b7f19457468657265756d205369676e6564204d6573736167653a0a333200000000600082015250565b7f5369676e617475726520697320696e76616c6964206c656e6774680000000000600082015250565b7f4e6f6e636520616c72656164792075736564206265666f726500000000000000600082015250565b7f72656d61696e696e672066756e6473206e6f742072657475726e656420746f2060008201527f7061726b65720000000000000000000000000000000000000000000000000000602082015250565b7f4e6f2066726565207061726b696e67207370616365206c656674000000000000600082015250565b7f6e6f7420656e6f756768206d6f6e657920000000000000000000000000000000600082015250565b7f4e6f7420656e6f7567682066756e647320746f20656e746572207061726b696e60008201527f6700000000000000000000000000000000000000000000000000000000000000602082015250565b7f7061726b6572206e6f7420696e207061726b696e670000000000000000000000600082015250565b7f616d6f756e74206e6f742073656e7420746f20636f6e74726163740000000000600082015250565b7f6e6f7420612076616c6964207369676e61747572650000000000000000000000600082015250565b50565b7f66756e6473206e6f74207265636569766564206279207061726b696e6720737960008201527f7374656d00000000000000000000000000000000000000000000000000000000602082015250565b611b7d81611730565b8114611b8857600080fd5b50565b611b9481611742565b8114611b9f57600080fd5b50565b611bab81611774565b8114611bb657600080fd5b50565b611bc2816117a2565b8114611bcd57600080fd5b5056fea264697066735822122099302e1ef9a6e8421db3991e3a44a3440083b0ef366dd69a4c1722dc8921561a64736f6c63430008040033",
  "immutableReferences": {},
  "source": "//SPDX-License-Identifier: MIT\r\n\r\npragma solidity >0.6.0;\r\nimport \"./ParkingSystem.sol\";\r\n\r\ncontract ParkerFunctions is ParkingSystem {\r\n    constructor() payable {\r\n        contractAddress = address(this);\r\n    }\r\n\r\n    function numberOfFreeParkings(address _owner) public view returns (uint16) {\r\n        return ownersList[_owner].numOfParkings;\r\n    }\r\n\r\n    function enterParking(address payable _owner) external payable {\r\n        require(\r\n            ownersList[_owner].numOfParkings > 0,\r\n            \"No free parking space left\"\r\n        );\r\n        require(msg.value >= 0.05 ether, \"Not enough funds to enter parking\");\r\n        (bool sent, ) = payable(contractAddress).call{value: msg.value}(\"\");\r\n        require(sent, \"amount not sent to contract\");\r\n        parkersList[msg.sender] = ParkerInfo({\r\n            inTime: block.timestamp,\r\n            maxValue: msg.value,\r\n            owner: _owner\r\n        });\r\n        ParkingInfo storage parkOwner = ownersList[_owner];\r\n        parkOwner.numOfParkings--;\r\n    }\r\n\r\n    function claimFunds(\r\n        uint256 _amount,\r\n        bytes memory _signature,\r\n        uint256 _nonce,\r\n        address payable _sender\r\n    ) external payable {\r\n        require(!usedNonces[_nonce], \"Nonce already used before\");\r\n        usedNonces[_nonce] = true;\r\n        require(\r\n            parkersList[_sender].maxValue != 0 &&\r\n                parkersList[_sender].maxValue >= _amount &&\r\n                parkersList[_sender].inTime != 0,\r\n            \"parker not in parking\"\r\n        );\r\n        require(\r\n            isValidSignature(\r\n                _amount,\r\n                _signature,\r\n                _nonce,\r\n                _sender,\r\n                contractAddress,\r\n                msg.sender\r\n            ),\r\n            \"not a valid signature\"\r\n        );\r\n        (bool sent1, ) = payable(msg.sender).call{value: _amount}(\"\");\r\n        require(sent1, \"funds not received by parking system\");\r\n        (bool sent2, ) = _sender.call{\r\n            value: parkersList[_sender].maxValue - _amount\r\n        }(\"\");\r\n        require(sent2, \"remaining funds not returned to parker\");\r\n        parkersList[_sender] = ParkerInfo({\r\n            inTime: 0,\r\n            maxValue: 0,\r\n            owner: payable(address(0))\r\n        });\r\n        ParkingInfo storage parkOwner = ownersList[msg.sender];\r\n        parkOwner.numOfParkings++;\r\n    }\r\n\r\n    function getAddress() public view returns (address) {\r\n        return contractAddress;\r\n    }\r\n}\r\n",
  "sourcePath": "C:\\Projects\\Blockchain\\smart-parking-system\\contracts\\ParkerFunctions.sol",
  "compiler": {
    "name": "solc",
    "version": "0.8.4+commit.c7e474f2.Emscripten.clang"
  },
  "schemaVersion": "3.4.6",
  "updatedAt": "2022-05-26T15:47:21.044Z",
  "networkType": "ethereum",
  "devdoc": {
    "kind": "dev",
    "methods": {},
    "version": 1
  },
  "userdoc": {
    "kind": "user",
    "methods": {},
    "version": 1
  }
}