{
  "contractName": "ParkingContract",
  "abi": [
    {
      "inputs": [],
      "stateMutability": "payable",
      "type": "constructor",
      "payable": true
    },
    {
      "anonymous": false,
      "inputs": [
        {
          "indexed": false,
          "internalType": "uint256",
          "name": "",
          "type": "uint256"
        },
        {
          "indexed": false,
          "internalType": "uint256",
          "name": "",
          "type": "uint256"
        }
      ],
      "name": "ParkerDetails",
      "type": "event"
    },
    {
      "anonymous": false,
      "inputs": [
        {
          "indexed": false,
          "internalType": "bytes32",
          "name": "",
          "type": "bytes32"
        }
      ],
      "name": "Print",
      "type": "event"
    },
    {
      "anonymous": false,
      "inputs": [
        {
          "indexed": false,
          "internalType": "address",
          "name": "",
          "type": "address"
        },
        {
          "indexed": false,
          "internalType": "uint256",
          "name": "",
          "type": "uint256"
        }
      ],
      "name": "Received",
      "type": "event"
    },
    {
      "stateMutability": "payable",
      "type": "fallback",
      "payable": true
    },
    {
      "stateMutability": "payable",
      "type": "receive",
      "payable": true
    },
    {
      "inputs": [],
      "name": "enterParking",
      "outputs": [],
      "stateMutability": "payable",
      "type": "function",
      "payable": true
    },
    {
      "inputs": [],
      "name": "getFinalamt",
      "outputs": [
        {
          "internalType": "uint256",
          "name": "",
          "type": "uint256"
        }
      ],
      "stateMutability": "view",
      "type": "function",
      "constant": true
    },
    {
      "inputs": [
        {
          "internalType": "uint256",
          "name": "amount",
          "type": "uint256"
        },
        {
          "internalType": "bytes",
          "name": "signature",
          "type": "bytes"
        },
        {
          "internalType": "uint256",
          "name": "nonce",
          "type": "uint256"
        },
        {
          "internalType": "address payable",
          "name": "sender",
          "type": "address"
        }
      ],
      "name": "claimFunds",
      "outputs": [
        {
          "internalType": "bool",
          "name": "",
          "type": "bool"
        }
      ],
      "stateMutability": "payable",
      "type": "function",
      "payable": true
    },
    {
      "inputs": [],
      "name": "claimTimeout",
      "outputs": [],
      "stateMutability": "payable",
      "type": "function",
      "payable": true
    },
    {
      "inputs": [],
      "name": "getBalance",
      "outputs": [
        {
          "internalType": "uint256",
          "name": "",
          "type": "uint256"
        }
      ],
      "stateMutability": "view",
      "type": "function",
      "constant": true
    },
    {
      "inputs": [],
      "name": "getAddress",
      "outputs": [
        {
          "internalType": "address",
          "name": "",
          "type": "address"
        }
      ],
      "stateMutability": "view",
      "type": "function",
      "constant": true
    },
    {
      "inputs": [
        {
          "internalType": "address",
          "name": "addr",
          "type": "address"
        }
      ],
      "name": "getInTime",
      "outputs": [
        {
          "internalType": "uint256",
          "name": "",
          "type": "uint256"
        }
      ],
      "stateMutability": "view",
      "type": "function",
      "constant": true
    },
    {
      "inputs": [
        {
          "internalType": "uint256",
          "name": "amount",
          "type": "uint256"
        },
        {
          "internalType": "bytes",
          "name": "signature",
          "type": "bytes"
        },
        {
          "internalType": "uint256",
          "name": "nonce",
          "type": "uint256"
        },
        {
          "internalType": "address",
          "name": "sender",
          "type": "address"
        }
      ],
      "name": "isMatchingSignature",
      "outputs": [
        {
          "internalType": "bool",
          "name": "",
          "type": "bool"
        }
      ],
      "stateMutability": "nonpayable",
      "type": "function"
    },
    {
      "inputs": [
        {
          "internalType": "address",
          "name": "_sender",
          "type": "address"
        }
      ],
      "name": "parkerDetails",
      "outputs": [
        {
          "internalType": "uint256",
          "name": "",
          "type": "uint256"
        }
      ],
      "stateMutability": "view",
      "type": "function",
      "constant": true
    }
  ],
  "bytecode": "0x6080604052734720c905840383e93ed84a7ecce181b76c9a62e1600260006101000a81548173ffffffffffffffffffffffffffffffffffffffff021916908373ffffffffffffffffffffffffffffffffffffffff160217905550603260045567016345785d8a000060055530600360006101000a81548173ffffffffffffffffffffffffffffffffffffffff021916908373ffffffffffffffffffffffffffffffffffffffff1602179055506119fd806100ba6000396000f3fe60806040526004361061008a5760003560e01c8063418f83dd11610059578063418f83dd1461016957806364bef37b146101a65780639fda1adf146101b0578063cac246ae146101db578063d02d22a81461020b576100ca565b80630e1da6c3146100cc57806312065fe0146100d65780631afff8791461010157806338cc48311461013e576100ca565b366100ca577f88a5966d370b9919b20f3e2c13ff65706f196a4e32cc2c12bf57088f8852587433346040516100c09291906111db565b60405180910390a1005b005b6100d4610248565b005b3480156100e257600080fd5b506100eb61041d565b6040516100f891906113fa565b60405180910390f35b34801561010d57600080fd5b5061012860048036038101906101239190610d9b565b610425565b60405161013591906113fa565b60405180910390f35b34801561014a57600080fd5b50610153610470565b60405161016091906111c0565b60405180910390f35b34801561017557600080fd5b50610190600480360381019061018b9190610d9b565b610478565b60405161019d91906113fa565b60405180910390f35b6101ae6104c3565b005b3480156101bc57600080fd5b506101c5610627565b6040516101d291906113fa565b60405180910390f35b6101f560048036038101906101f09190610e3f565b61062f565b6040516102029190611204565b60405180910390f35b34801561021757600080fd5b50610232600480360381019061022d9190610dc4565b610aaa565b60405161023f9190611204565b60405180910390f35b6004546000803373ffffffffffffffffffffffffffffffffffffffff1673ffffffffffffffffffffffffffffffffffffffff168152602001908152602001600020600001546102979190611492565b42116102a257600080fd5b67016345785d8a00006000803373ffffffffffffffffffffffffffffffffffffffff1673ffffffffffffffffffffffffffffffffffffffff168152602001908152602001600020600101541161032d576040517f08c379a0000000000000000000000000000000000000000000000000000000008152600401610324906113ba565b60405180910390fd5b60003373ffffffffffffffffffffffffffffffffffffffff166000803373ffffffffffffffffffffffffffffffffffffffff1673ffffffffffffffffffffffffffffffffffffffff16815260200190815260200160002060010154604051610394906111ab565b60006040518083038185875af1925050503d80600081146103d1576040519150601f19603f3d011682016040523d82523d6000602084013e6103d6565b606091505b505090508061041a576040517f08c379a0000000000000000000000000000000000000000000000000000000008152600401610411906112fa565b60405180910390fd5b50565b600047905090565b60008060008373ffffffffffffffffffffffffffffffffffffffff1673ffffffffffffffffffffffffffffffffffffffff168152602001908152602001600020600001549050919050565b600030905090565b60008060008373ffffffffffffffffffffffffffffffffffffffff1673ffffffffffffffffffffffffffffffffffffffff168152602001908152602001600020600001549050919050565b6706f05b59d3b2000034101561050e576040517f08c379a00000000000000000000000000000000000000000000000000000000081526004016105059061131a565b60405180910390fd5b60003073ffffffffffffffffffffffffffffffffffffffff1634604051610534906111ab565b60006040518083038185875af1925050503d8060008114610571576040519150601f19603f3d011682016040523d82523d6000602084013e610576565b606091505b50509050806105ba576040517f08c379a00000000000000000000000000000000000000000000000000000000081526004016105b19061135a565b60405180910390fd5b6040518060400160405280428152602001348152506000803373ffffffffffffffffffffffffffffffffffffffff1673ffffffffffffffffffffffffffffffffffffffff168152602001908152602001600020600082015181600001556020820151816001015590505050565b600042905090565b60006001600084815260200190815260200160002060009054906101000a900460ff1615610692576040517f08c379a0000000000000000000000000000000000000000000000000000000008152600401610689906112ba565b60405180910390fd5b600180600085815260200190815260200160002060006101000a81548160ff021916908315150217905550600260009054906101000a900473ffffffffffffffffffffffffffffffffffffffff1673ffffffffffffffffffffffffffffffffffffffff163373ffffffffffffffffffffffffffffffffffffffff161461074d576040517f08c379a00000000000000000000000000000000000000000000000000000000081526004016107449061139a565b60405180910390fd5b60008060008473ffffffffffffffffffffffffffffffffffffffff1673ffffffffffffffffffffffffffffffffffffffff16815260200190815260200160002060010154141580156107e05750846000808473ffffffffffffffffffffffffffffffffffffffff1673ffffffffffffffffffffffffffffffffffffffff1681526020019081526020016000206001015410155b61081f576040517f08c379a00000000000000000000000000000000000000000000000000000000081526004016108169061133a565b60405180910390fd5b61082b85858585610ac2565b61086a576040517f08c379a00000000000000000000000000000000000000000000000000000000081526004016108619061137a565b60405180910390fd5b6000600260009054906101000a900473ffffffffffffffffffffffffffffffffffffffff1673ffffffffffffffffffffffffffffffffffffffff16866040516108b2906111ab565b60006040518083038185875af1925050503d80600081146108ef576040519150601f19603f3d011682016040523d82523d6000602084013e6108f4565b606091505b5050905080610938576040517f08c379a000000000000000000000000000000000000000000000000000000000815260040161092f906113da565b60405180910390fd5b60008373ffffffffffffffffffffffffffffffffffffffff16876000808773ffffffffffffffffffffffffffffffffffffffff1673ffffffffffffffffffffffffffffffffffffffff1681526020019081526020016000206001015461099e919061151f565b6040516109aa906111ab565b60006040518083038185875af1925050503d80600081146109e7576040519150601f19603f3d011682016040523d82523d6000602084013e6109ec565b606091505b5050905080610a30576040517f08c379a0000000000000000000000000000000000000000000000000000000008152600401610a27906112da565b60405180910390fd5b60405180604001604052806000815260200160008152506000808673ffffffffffffffffffffffffffffffffffffffff1673ffffffffffffffffffffffffffffffffffffffff1681526020019081526020016000206000820151816000015560208201518160010155905050600192505050949350505050565b6000610ab885858585610ac2565b9050949350505050565b60007f8528251299ede771e6157005ad82960c1e78e9118223b095bcd115c01754de496000604051610af4919061127f565b60405180910390a16000610b55338786600360009054906101000a900473ffffffffffffffffffffffffffffffffffffffff16604051602001610b3a9493929190611137565b60405160208183030381529060405280519060200120610bd1565b90507f8528251299ede771e6157005ad82960c1e78e9118223b095bcd115c01754de4981604051610b86919061121f565b60405180910390a18273ffffffffffffffffffffffffffffffffffffffff16610baf8287610c01565b73ffffffffffffffffffffffffffffffffffffffff1614915050949350505050565b600081604051602001610be49190611185565b604051602081830303815290604052805190602001209050919050565b600080600080610c1085610c70565b92509250925060018684848460405160008152602001604052604051610c39949392919061123a565b6020604051602081039080840390855afa158015610c5b573d6000803e3d6000fd5b50505060206040510351935050505092915050565b60008060006041845114610cb9576040517f08c379a0000000000000000000000000000000000000000000000000000000008152600401610cb09061129a565b60405180910390fd5b6020840151915060408401519050606084015160001a9250601b8360ff161015610ced57601b83610cea91906114e8565b92505b9193909250565b6000610d07610d028461143a565b611415565b905082815260208101848484011115610d1f57600080fd5b610d2a8482856115e8565b509392505050565b600081359050610d4181611982565b92915050565b600081359050610d5681611999565b92915050565b600082601f830112610d6d57600080fd5b8135610d7d848260208601610cf4565b91505092915050565b600081359050610d95816119b0565b92915050565b600060208284031215610dad57600080fd5b6000610dbb84828501610d32565b91505092915050565b60008060008060808587031215610dda57600080fd5b6000610de887828801610d86565b945050602085013567ffffffffffffffff811115610e0557600080fd5b610e1187828801610d5c565b9350506040610e2287828801610d86565b9250506060610e3387828801610d32565b91505092959194509250565b60008060008060808587031215610e5557600080fd5b6000610e6387828801610d86565b945050602085013567ffffffffffffffff811115610e8057600080fd5b610e8c87828801610d5c565b9350506040610e9d87828801610d86565b9250506060610eae87828801610d47565b91505092959194509250565b610ecb610ec682611565565b61163a565b82525050565b610eda81611553565b82525050565b610ef1610eec82611553565b611628565b82525050565b610f0081611577565b82525050565b610f0f81611583565b82525050565b610f26610f2182611583565b61164c565b82525050565b610f35816115ce565b82525050565b6000610f48601c83611487565b9150610f53826116fb565b601c82019050919050565b6000610f6b601b83611476565b9150610f7682611724565b602082019050919050565b6000610f8e601983611476565b9150610f998261174d565b602082019050919050565b6000610fb1602683611476565b9150610fbc82611776565b604082019050919050565b6000610fd4602383611476565b9150610fdf826117c5565b604082019050919050565b6000610ff7602183611476565b915061100282611814565b604082019050919050565b600061101a601583611476565b915061102582611863565b602082019050919050565b600061103d601b83611476565b91506110488261188c565b602082019050919050565b6000611060601583611476565b915061106b826118b5565b602082019050919050565b600061108360008361146b565b915061108e826118de565b600082019050919050565b60006110a6601b83611476565b91506110b1826118e1565b602082019050919050565b60006110c9601583611476565b91506110d48261190a565b602082019050919050565b60006110ec602483611476565b91506110f782611933565b604082019050919050565b61110b816115b7565b82525050565b61112261111d826115b7565b611668565b82525050565b611131816115c1565b82525050565b60006111438287610ee0565b6014820191506111538286611111565b6020820191506111638285611111565b6020820191506111738284610eba565b60148201915081905095945050505050565b600061119082610f3b565b915061119c8284610f15565b60208201915081905092915050565b60006111b682611076565b9150819050919050565b60006020820190506111d56000830184610ed1565b92915050565b60006040820190506111f06000830185610ed1565b6111fd6020830184611102565b9392505050565b60006020820190506112196000830184610ef7565b92915050565b60006020820190506112346000830184610f06565b92915050565b600060808201905061124f6000830187610f06565b61125c6020830186611128565b6112696040830185610f06565b6112766060830184610f06565b95945050505050565b60006020820190506112946000830184610f2c565b92915050565b600060208201905081810360008301526112b381610f5e565b9050919050565b600060208201905081810360008301526112d381610f81565b9050919050565b600060208201905081810360008301526112f381610fa4565b9050919050565b6000602082019050818103600083015261131381610fc7565b9050919050565b6000602082019050818103600083015261133381610fea565b9050919050565b600060208201905081810360008301526113538161100d565b9050919050565b6000602082019050818103600083015261137381611030565b9050919050565b6000602082019050818103600083015261139381611053565b9050919050565b600060208201905081810360008301526113b381611099565b9050919050565b600060208201905081810360008301526113d3816110bc565b9050919050565b600060208201905081810360008301526113f3816110df565b9050919050565b600060208201905061140f6000830184611102565b92915050565b600061141f611430565b905061142b82826115f7565b919050565b6000604051905090565b600067ffffffffffffffff821115611455576114546116a1565b5b61145e826116d0565b9050602081019050919050565b600081905092915050565b600082825260208201905092915050565b600081905092915050565b600061149d826115b7565b91506114a8836115b7565b9250827fffffffffffffffffffffffffffffffffffffffffffffffffffffffffffffffff038211156114dd576114dc611672565b5b828201905092915050565b60006114f3826115c1565b91506114fe836115c1565b92508260ff0382111561151457611513611672565b5b828201905092915050565b600061152a826115b7565b9150611535836115b7565b92508282101561154857611547611672565b5b828203905092915050565b600061155e82611597565b9050919050565b600061157082611597565b9050919050565b60008115159050919050565b6000819050919050565b6000819050919050565b600073ffffffffffffffffffffffffffffffffffffffff82169050919050565b6000819050919050565b600060ff82169050919050565b60006115e16115dc8361158d565b6116e1565b9050919050565b82818337600083830152505050565b611600826116d0565b810181811067ffffffffffffffff8211171561161f5761161e6116a1565b5b80604052505050565b600061163382611656565b9050919050565b600061164582611656565b9050919050565b6000819050919050565b6000611661826116ee565b9050919050565b6000819050919050565b7f4e487b7100000000000000000000000000000000000000000000000000000000600052601160045260246000fd5b7f4e487b7100000000000000000000000000000000000000000000000000000000600052604160045260246000fd5b6000601f19601f8301169050919050565b60008160001b9050919050565b60008160601b9050919050565b7f19457468657265756d205369676e6564204d6573736167653a0a333200000000600082015250565b7f5369676e617475726520697320696e76616c6964206c656e6774680000000000600082015250565b7f4e6f6e636520616c72656164792075736564206265666f726500000000000000600082015250565b7f72656d61696e696e672066756e6473206e6f742072657475726e656420746f2060008201527f7061726b65720000000000000000000000000000000000000000000000000000602082015250565b7f66756e6473206e6f742072656d6f766564206279207061726b696e672073797360008201527f74656d0000000000000000000000000000000000000000000000000000000000602082015250565b7f4e6f7420656e6f7567682066756e647320746f20656e746572207061726b696e60008201527f6700000000000000000000000000000000000000000000000000000000000000602082015250565b7f7061726b6572206e6f7420696e207061726b696e670000000000000000000000600082015250565b7f616d6f756e74206e6f742073656e7420746f20636f6e74726163740000000000600082015250565b7f6e6f7420612076616c6964207369676e61747572650000000000000000000000600082015250565b50565b7f6f776e6572206e6f7420657175616c20746f2072656365697665720000000000600082015250565b7f6e6f20616d6f756e7420696e20636f6e74726163740000000000000000000000600082015250565b7f66756e6473206e6f74207265636569766564206279207061726b696e6720737960008201527f7374656d00000000000000000000000000000000000000000000000000000000602082015250565b61198b81611553565b811461199657600080fd5b50565b6119a281611565565b81146119ad57600080fd5b50565b6119b9816115b7565b81146119c457600080fd5b5056fea26469706673582212201223d1a36b9ae65d09a0f9ac87fa480d1a27fe345472c643a5ac246b4ca03a5c64736f6c63430008040033",
  "immutableReferences": {},
  "source": "// SPDX-License-Identifier: MIT\r\npragma solidity >0.8.0;\r\n\r\ncontract ParkingContract {\r\n    struct Parker {\r\n        uint256 inTime;\r\n        uint256 maxValue;\r\n    }\r\n    mapping(address => Parker) parkers;\r\n    mapping(uint256 => bool) usedNonces;\r\n    address payable receiver =\r\n        payable(0x4720C905840383E93ed84A7ECCe181B76c9a62E1);\r\n    address payable contractAddress;\r\n    uint256 timeout = 50;\r\n    uint256 billAmt = 0.1 ether;\r\n\r\n    constructor() payable {\r\n        contractAddress = payable(address(this));\r\n    }\r\n\r\n    event Print(bytes32);\r\n\r\n    function enterParking() public payable {\r\n        require(msg.value >= 0.5 ether, \"Not enough funds to enter parking\");\r\n        (bool sent, ) = payable(address(this)).call{value: msg.value}(\"\");\r\n        require(sent, \"amount not sent to contract\");\r\n        parkers[msg.sender] = Parker({\r\n            inTime: block.timestamp,\r\n            maxValue: msg.value\r\n        });\r\n    }\r\n\r\n    function getFinalamt() public view returns (uint256) {\r\n        // uint256 totamt = ((block.timestamp - parkers[msg.sender].inTime) / 15) *\r\n        //     billAmt;\r\n        return block.timestamp;\r\n    }\r\n\r\n    function claimFunds(\r\n        uint256 amount,\r\n        bytes memory signature,\r\n        uint256 nonce,\r\n        address payable sender\r\n    ) external payable returns (bool) {\r\n        require(!usedNonces[nonce], \"Nonce already used before\");\r\n        usedNonces[nonce] = true;\r\n        require(msg.sender == receiver, \"owner not equal to receiver\");\r\n        require(\r\n            parkers[sender].maxValue != 0 && parkers[sender].maxValue >= amount,\r\n            \"parker not in parking\"\r\n        );\r\n        // uint256 totamt = ((block.timestamp - parkers[sender].inTime) / 15) *\r\n        //     billAmt;\r\n        // require(totamt == amount, \"wrong amount withdrawn\");\r\n        require(\r\n            isValidSignature(amount, signature, nonce, sender),\r\n            \"not a valid signature\"\r\n        );\r\n        (bool sent1, ) = receiver.call{value: amount}(\"\");\r\n        require(sent1, \"funds not received by parking system\");\r\n        (bool sent2, ) = sender.call{\r\n            value: (parkers[sender].maxValue - amount)\r\n        }(\"\");\r\n        require(sent2, \"remaining funds not returned to parker\");\r\n        parkers[sender] = Parker({inTime: 0, maxValue: 0});\r\n        return true;\r\n    }\r\n\r\n    function claimTimeout() external payable {\r\n        require(block.timestamp > parkers[msg.sender].inTime + timeout);\r\n        require(\r\n            parkers[msg.sender].maxValue > 0.1 ether,\r\n            \"no amount in contract\"\r\n        );\r\n        (bool sent, ) = payable(msg.sender).call{\r\n            value: parkers[msg.sender].maxValue\r\n        }(\"\");\r\n        require(sent, \"funds not removed by parking system\");\r\n    }\r\n\r\n    function getBalance() public view returns (uint256) {\r\n        return address(this).balance;\r\n    }\r\n\r\n    function getAddress() public view returns (address) {\r\n        return address(this);\r\n    }\r\n\r\n    function getInTime(address addr) public view returns (uint256) {\r\n        return parkers[addr].inTime;\r\n    }\r\n\r\n    function isMatchingSignature(\r\n        uint256 amount,\r\n        bytes memory signature,\r\n        uint256 nonce,\r\n        address sender\r\n    ) public returns (bool) {\r\n        return isValidSignature(amount, signature, nonce, sender);\r\n    }\r\n\r\n    function isValidSignature(\r\n        uint256 amount,\r\n        bytes memory signature,\r\n        uint256 nonce,\r\n        address sender\r\n    ) internal returns (bool) {\r\n        emit Print(0);\r\n        bytes32 message = prefixed(\r\n            keccak256(\r\n                abi.encodePacked(msg.sender, amount, nonce, contractAddress)\r\n            )\r\n        );\r\n        emit Print(message);\r\n        return recoverSigner(message, signature) == sender;\r\n    }\r\n\r\n    function recoverSigner(bytes32 message, bytes memory signature)\r\n        internal\r\n        pure\r\n        returns (address)\r\n    {\r\n        (uint8 v, bytes32 r, bytes32 s) = splitSignature(signature);\r\n        // if (v != 27 || v != 28) {\r\n        //     return (receiver);\r\n        // }\r\n        return ecrecover(message, v, r, s);\r\n    }\r\n\r\n    function splitSignature(bytes memory signature)\r\n        internal\r\n        pure\r\n        returns (\r\n            uint8 v,\r\n            bytes32 r,\r\n            bytes32 s\r\n        )\r\n    {\r\n        require(signature.length == 65, \"Signature is invalid length\");\r\n        assembly {\r\n            r := mload(add(signature, 32))\r\n            s := mload(add(signature, 64))\r\n            v := byte(0, mload(add(signature, 96)))\r\n        }\r\n        if (v < 27) {\r\n            v += 27;\r\n        }\r\n        return (v, r, s);\r\n    }\r\n\r\n    event ParkerDetails(uint256, uint256);\r\n\r\n    function parkerDetails(address _sender) public view returns (uint256) {\r\n        return parkers[_sender].inTime;\r\n    }\r\n\r\n    function prefixed(bytes32 hashv) internal pure returns (bytes32) {\r\n        return\r\n            keccak256(\r\n                abi.encodePacked(\"\\x19Ethereum Signed Message:\\n32\", hashv)\r\n            );\r\n    }\r\n\r\n    event Received(address, uint256);\r\n\r\n    receive() external payable {\r\n        emit Received(msg.sender, msg.value);\r\n    }\r\n\r\n    fallback() external payable {}\r\n}\r\n",
  "sourcePath": "C:\\Projects\\Blockchain\\smart-parking-system\\contracts\\ParkingContract.sol",
  "compiler": {
    "name": "solc",
    "version": "0.8.4+commit.c7e474f2.Emscripten.clang"
  },
  "schemaVersion": "3.4.6",
  "updatedAt": "2022-04-22T07:19:34.852Z",
  "networkType": "ethereum",
  "devdoc": {
    "kind": "dev",
    "methods": {},
    "version": 1
  },
  "userdoc": {
    "kind": "user",
    "methods": {},
    "version": 1
  }
}