{
  "contractName": "ParkingSystem",
  "abi": [
    {
      "anonymous": false,
      "inputs": [
        {
          "indexed": false,
          "internalType": "bytes32",
          "name": "",
          "type": "bytes32"
        }
      ],
      "name": "Print",
      "type": "event"
    },
    {
      "anonymous": false,
      "inputs": [
        {
          "indexed": false,
          "internalType": "address",
          "name": "user",
          "type": "address"
        },
        {
          "indexed": false,
          "internalType": "uint256",
          "name": "amount",
          "type": "uint256"
        }
      ],
      "name": "ValueReceived",
      "type": "event"
    },
    {
      "stateMutability": "payable",
      "type": "fallback"
    },
    {
      "inputs": [
        {
          "internalType": "uint256",
          "name": "amount",
          "type": "uint256"
        },
        {
          "internalType": "bytes",
          "name": "signature",
          "type": "bytes"
        },
        {
          "internalType": "uint256",
          "name": "nonce",
          "type": "uint256"
        },
        {
          "internalType": "address",
          "name": "sender",
          "type": "address"
        },
        {
          "internalType": "address",
          "name": "contractAddress",
          "type": "address"
        },
        {
          "internalType": "address",
          "name": "_receiver",
          "type": "address"
        }
      ],
      "name": "isMatchingSignature",
      "outputs": [
        {
          "internalType": "bool",
          "name": "",
          "type": "bool"
        }
      ],
      "stateMutability": "nonpayable",
      "type": "function"
    },
    {
      "stateMutability": "payable",
      "type": "receive"
    },
    {
      "inputs": [
        {
          "internalType": "uint16",
          "name": "_numOfParking",
          "type": "uint16"
        },
        {
          "internalType": "uint256",
          "name": "_billAmt",
          "type": "uint256"
        },
        {
          "internalType": "uint256",
          "name": "_timeout",
          "type": "uint256"
        }
      ],
      "name": "registerParking",
      "outputs": [],
      "stateMutability": "payable",
      "type": "function"
    },
    {
      "inputs": [
        {
          "internalType": "address",
          "name": "_owner",
          "type": "address"
        }
      ],
      "name": "checkIfOwnerExists",
      "outputs": [
        {
          "internalType": "bool",
          "name": "",
          "type": "bool"
        }
      ],
      "stateMutability": "view",
      "type": "function"
    }
  ],
  "bytecode": "0x608060405234801561001057600080fd5b50610cc2806100206000396000f3fe6080604052600436106100385760003560e01c80633c0373131461007a5780634dce938a146100965780637bfc544a146100d357610078565b36610078577f7e71433ddf847725166244795048ecf3e3f9f35628254ecbf736056664233493333460405161006e92919061083e565b60405180910390a1005b005b610094600480360381019061008f91906105d2565b610110565b005b3480156100a257600080fd5b506100bd60048036038101906100b891906105a9565b610276565b6040516100ca9190610867565b60405180910390f35b3480156100df57600080fd5b506100fa60048036038101906100f59190610621565b6102d4565b6040516101079190610867565b60405180910390f35b66038d7ea4c680008361ffff1661012791906109e6565b66ffffffffffffff163414610171576040517f08c379a00000000000000000000000000000000000000000000000000000000081526004016101689061091d565b60405180910390fd5b600360009054906101000a900473ffffffffffffffffffffffffffffffffffffffff1673ffffffffffffffffffffffffffffffffffffffff166108fc349081150290604051600060405180830381858888f193505050501580156101d9573d6000803e3d6000fd5b5060405180606001604052808461ffff168152602001838152602001828152506000803373ffffffffffffffffffffffffffffffffffffffff1673ffffffffffffffffffffffffffffffffffffffff16815260200190815260200160002060008201518160000160006101000a81548161ffff021916908361ffff1602179055506020820151816001015560408201518160020155905050505050565b6000806000808473ffffffffffffffffffffffffffffffffffffffff1673ffffffffffffffffffffffffffffffffffffffff1681526020019081526020016000206001015411156102ca57600190506102cf565b600090505b919050565b60006102e48787878787876102f0565b90509695505050505050565b60007f8528251299ede771e6157005ad82960c1e78e9118223b095bcd115c01754de49600060405161032291906108e2565b60405180910390a160006103618389888760405160200161034694939291906107ca565b604051602081830303815290604052805190602001206103df565b90507f8528251299ede771e6157005ad82960c1e78e9118223b095bcd115c01754de49816040516103929190610882565b60405180910390a18473ffffffffffffffffffffffffffffffffffffffff166103bb828961040f565b73ffffffffffffffffffffffffffffffffffffffff16149150509695505050505050565b6000816040516020016103f29190610818565b604051602081830303815290604052805190602001209050919050565b60008060008061041e8561047e565b92509250925060018684848460405160008152602001604052604051610447949392919061089d565b6020604051602081039080840390855afa158015610469573d6000803e3d6000fd5b50505060206040510351935050505092915050565b600080600060418451146104c7576040517f08c379a00000000000000000000000000000000000000000000000000000000081526004016104be906108fd565b60405180910390fd5b6020840151915060408401519050606084015160001a9250601b8360ff1610156104fb57601b836104f891906109af565b92505b9193909250565b600061051561051084610962565b61093d565b90508281526020810184848401111561052d57600080fd5b610538848285610acb565b509392505050565b60008135905061054f81610c47565b92915050565b600082601f83011261056657600080fd5b8135610576848260208601610502565b91505092915050565b60008135905061058e81610c5e565b92915050565b6000813590506105a381610c75565b92915050565b6000602082840312156105bb57600080fd5b60006105c984828501610540565b91505092915050565b6000806000606084860312156105e757600080fd5b60006105f58682870161057f565b935050602061060686828701610594565b925050604061061786828701610594565b9150509250925092565b60008060008060008060c0878903121561063a57600080fd5b600061064889828a01610594565b965050602087013567ffffffffffffffff81111561066557600080fd5b61067189828a01610555565b955050604061068289828a01610594565b945050606061069389828a01610540565b93505060806106a489828a01610540565b92505060a06106b589828a01610540565b9150509295509295509295565b6106cb81610a27565b82525050565b6106e26106dd82610a27565b610b0b565b82525050565b6106f181610a39565b82525050565b61070081610a45565b82525050565b61071761071282610a45565b610b1d565b82525050565b61072681610ab1565b82525050565b6000610739601c836109a4565b915061074482610bcc565b601c82019050919050565b600061075c601b83610993565b915061076782610bf5565b602082019050919050565b600061077f601183610993565b915061078a82610c1e565b602082019050919050565b61079e81610a87565b82525050565b6107b56107b082610a87565b610b39565b82525050565b6107c481610aa4565b82525050565b60006107d682876106d1565b6014820191506107e682866107a4565b6020820191506107f682856107a4565b60208201915061080682846106d1565b60148201915081905095945050505050565b60006108238261072c565b915061082f8284610706565b60208201915081905092915050565b600060408201905061085360008301856106c2565b6108606020830184610795565b9392505050565b600060208201905061087c60008301846106e8565b92915050565b600060208201905061089760008301846106f7565b92915050565b60006080820190506108b260008301876106f7565b6108bf60208301866107bb565b6108cc60408301856106f7565b6108d960608301846106f7565b95945050505050565b60006020820190506108f7600083018461071d565b92915050565b600060208201905081810360008301526109168161074f565b9050919050565b6000602082019050818103600083015261093681610772565b9050919050565b6000610947610958565b90506109538282610ada565b919050565b6000604051905090565b600067ffffffffffffffff82111561097d5761097c610b72565b5b61098682610ba1565b9050602081019050919050565b600082825260208201905092915050565b600081905092915050565b60006109ba82610aa4565b91506109c583610aa4565b92508260ff038211156109db576109da610b43565b5b828201905092915050565b60006109f182610a91565b91506109fc83610a91565b92508166ffffffffffffff0483118215151615610a1c57610a1b610b43565b5b828202905092915050565b6000610a3282610a67565b9050919050565b60008115159050919050565b6000819050919050565b6000819050919050565b600061ffff82169050919050565b600073ffffffffffffffffffffffffffffffffffffffff82169050919050565b6000819050919050565b600066ffffffffffffff82169050919050565b600060ff82169050919050565b6000610ac4610abf83610a4f565b610bb2565b9050919050565b82818337600083830152505050565b610ae382610ba1565b810181811067ffffffffffffffff82111715610b0257610b01610b72565b5b80604052505050565b6000610b1682610b27565b9050919050565b6000819050919050565b6000610b3282610bbf565b9050919050565b6000819050919050565b7f4e487b7100000000000000000000000000000000000000000000000000000000600052601160045260246000fd5b7f4e487b7100000000000000000000000000000000000000000000000000000000600052604160045260246000fd5b6000601f19601f8301169050919050565b60008160001b9050919050565b60008160601b9050919050565b7f19457468657265756d205369676e6564204d6573736167653a0a333200000000600082015250565b7f5369676e617475726520697320696e76616c6964206c656e6774680000000000600082015250565b7f6e6f7420656e6f756768206d6f6e657920000000000000000000000000000000600082015250565b610c5081610a27565b8114610c5b57600080fd5b50565b610c6781610a59565b8114610c7257600080fd5b50565b610c7e81610a87565b8114610c8957600080fd5b5056fea2646970667358221220fc77c037130efd91363e124db4ab1d9b15c4222f2c57109cf89d6e74c1e63c5864736f6c63430008040033",
  "immutableReferences": {},
  "source": "// SPDX-License-Identifier: MIT\r\n\r\npragma solidity >=0.5.1;\r\nimport \"./SigCheck.sol\";\r\n\r\ncontract ParkingSystem is SigCheck {\r\n    struct ParkerInfo {\r\n        uint256 inTime;\r\n        uint256 maxValue;\r\n        address payable owner;\r\n    }\r\n    struct ParkingInfo {\r\n        uint16 numOfParkings;\r\n        uint256 billAmt;\r\n        uint256 timeout;\r\n    }\r\n    mapping(address => ParkingInfo) ownersList;\r\n    mapping(address => ParkerInfo) parkersList;\r\n    mapping(uint256 => bool) usedNonces;\r\n    address internal contractAddress;\r\n\r\n    function registerParking(\r\n        uint16 _numOfParking,\r\n        uint256 _billAmt,\r\n        uint256 _timeout\r\n    ) external payable {\r\n        require(msg.value == _numOfParking * 0.001 ether, \"not enough money \");\r\n        payable(contractAddress).transfer(msg.value);\r\n        ownersList[msg.sender] = ParkingInfo(_numOfParking, _billAmt, _timeout);\r\n    }\r\n\r\n    function checkIfOwnerExists(address _owner) public view returns (bool) {\r\n        if (ownersList[_owner].billAmt > 0) {\r\n            return true;\r\n        }\r\n        return false;\r\n    }\r\n}\r\n",
  "sourcePath": "C:\\Projects\\Blockchain\\smart-parking-system\\contracts\\ParkingSystem.sol",
  "compiler": {
    "name": "solc",
    "version": "0.8.4+commit.c7e474f2.Emscripten.clang"
  },
  "schemaVersion": "3.4.6",
  "updatedAt": "2022-05-26T15:47:16.464Z",
  "devdoc": {
    "kind": "dev",
    "methods": {},
    "version": 1
  },
  "userdoc": {
    "kind": "user",
    "methods": {},
    "version": 1
  }
}