{
  "contractName": "SigCheck",
  "abi": [
    {
      "anonymous": false,
      "inputs": [
        {
          "indexed": false,
          "internalType": "bytes32",
          "name": "",
          "type": "bytes32"
        }
      ],
      "name": "Print",
      "type": "event"
    },
    {
      "anonymous": false,
      "inputs": [
        {
          "indexed": false,
          "internalType": "address",
          "name": "user",
          "type": "address"
        },
        {
          "indexed": false,
          "internalType": "uint256",
          "name": "amount",
          "type": "uint256"
        }
      ],
      "name": "ValueReceived",
      "type": "event"
    },
    {
      "stateMutability": "payable",
      "type": "fallback"
    },
    {
      "stateMutability": "payable",
      "type": "receive"
    },
    {
      "inputs": [
        {
          "internalType": "uint256",
          "name": "amount",
          "type": "uint256"
        },
        {
          "internalType": "bytes",
          "name": "signature",
          "type": "bytes"
        },
        {
          "internalType": "uint256",
          "name": "nonce",
          "type": "uint256"
        },
        {
          "internalType": "address",
          "name": "sender",
          "type": "address"
        },
        {
          "internalType": "address",
          "name": "contractAddress",
          "type": "address"
        },
        {
          "internalType": "address",
          "name": "_receiver",
          "type": "address"
        }
      ],
      "name": "isMatchingSignature",
      "outputs": [
        {
          "internalType": "bool",
          "name": "",
          "type": "bool"
        }
      ],
      "stateMutability": "nonpayable",
      "type": "function"
    }
  ],
  "bytecode": "0x608060405234801561001057600080fd5b5061091d806100206000396000f3fe6080604052600436106100225760003560e01c80637bfc544a1461006457610062565b36610062577f7e71433ddf847725166244795048ecf3e3f9f35628254ecbf736056664233493333460405161005892919061055b565b60405180910390a1005b005b34801561007057600080fd5b5061008b60048036038101906100869190610361565b6100a1565b6040516100989190610584565b60405180910390f35b60006100b18787878787876100bd565b90509695505050505050565b60007f8528251299ede771e6157005ad82960c1e78e9118223b095bcd115c01754de4960006040516100ef91906105ff565b60405180910390a1600061012e8389888760405160200161011394939291906104e7565b604051602081830303815290604052805190602001206101ac565b90507f8528251299ede771e6157005ad82960c1e78e9118223b095bcd115c01754de498160405161015f919061059f565b60405180910390a18473ffffffffffffffffffffffffffffffffffffffff1661018882896101dc565b73ffffffffffffffffffffffffffffffffffffffff16149150509695505050505050565b6000816040516020016101bf9190610535565b604051602081830303815290604052805190602001209050919050565b6000806000806101eb8561024b565b9250925092506001868484846040516000815260200160405260405161021494939291906105ba565b6020604051602081039080840390855afa158015610236573d6000803e3d6000fd5b50505060206040510351935050505092915050565b60008060006041845114610294576040517f08c379a000000000000000000000000000000000000000000000000000000000815260040161028b9061061a565b60405180910390fd5b6020840151915060408401519050606084015160001a9250601b8360ff1610156102c857601b836102c591906106ac565b92505b9193909250565b60006102e26102dd8461065f565b61063a565b9050828152602081018484840111156102fa57600080fd5b610305848285610766565b509392505050565b60008135905061031c816108b9565b92915050565b600082601f83011261033357600080fd5b81356103438482602086016102cf565b91505092915050565b60008135905061035b816108d0565b92915050565b60008060008060008060c0878903121561037a57600080fd5b600061038889828a0161034c565b965050602087013567ffffffffffffffff8111156103a557600080fd5b6103b189828a01610322565b95505060406103c289828a0161034c565b94505060606103d389828a0161030d565b93505060806103e489828a0161030d565b92505060a06103f589828a0161030d565b9150509295509295509295565b61040b816106e3565b82525050565b61042261041d826106e3565b6107a6565b82525050565b610431816106f5565b82525050565b61044081610701565b82525050565b61045761045282610701565b6107b8565b82525050565b6104668161074c565b82525050565b6000610479601c836106a1565b915061048482610867565b601c82019050919050565b600061049c601b83610690565b91506104a782610890565b602082019050919050565b6104bb81610735565b82525050565b6104d26104cd82610735565b6107d4565b82525050565b6104e18161073f565b82525050565b60006104f38287610411565b60148201915061050382866104c1565b60208201915061051382856104c1565b6020820191506105238284610411565b60148201915081905095945050505050565b60006105408261046c565b915061054c8284610446565b60208201915081905092915050565b60006040820190506105706000830185610402565b61057d60208301846104b2565b9392505050565b60006020820190506105996000830184610428565b92915050565b60006020820190506105b46000830184610437565b92915050565b60006080820190506105cf6000830187610437565b6105dc60208301866104d8565b6105e96040830185610437565b6105f66060830184610437565b95945050505050565b6000602082019050610614600083018461045d565b92915050565b600060208201905081810360008301526106338161048f565b9050919050565b6000610644610655565b90506106508282610775565b919050565b6000604051905090565b600067ffffffffffffffff82111561067a5761067961080d565b5b6106838261083c565b9050602081019050919050565b600082825260208201905092915050565b600081905092915050565b60006106b78261073f565b91506106c28361073f565b92508260ff038211156106d8576106d76107de565b5b828201905092915050565b60006106ee82610715565b9050919050565b60008115159050919050565b6000819050919050565b6000819050919050565b600073ffffffffffffffffffffffffffffffffffffffff82169050919050565b6000819050919050565b600060ff82169050919050565b600061075f61075a8361070b565b61084d565b9050919050565b82818337600083830152505050565b61077e8261083c565b810181811067ffffffffffffffff8211171561079d5761079c61080d565b5b80604052505050565b60006107b1826107c2565b9050919050565b6000819050919050565b60006107cd8261085a565b9050919050565b6000819050919050565b7f4e487b7100000000000000000000000000000000000000000000000000000000600052601160045260246000fd5b7f4e487b7100000000000000000000000000000000000000000000000000000000600052604160045260246000fd5b6000601f19601f8301169050919050565b60008160001b9050919050565b60008160601b9050919050565b7f19457468657265756d205369676e6564204d6573736167653a0a333200000000600082015250565b7f5369676e617475726520697320696e76616c6964206c656e6774680000000000600082015250565b6108c2816106e3565b81146108cd57600080fd5b50565b6108d981610735565b81146108e457600080fd5b5056fea26469706673582212206e192371521d1e7c158cfe8e5744308e0ba059a519fdc8b928504ece681799f764736f6c63430008040033",
  "immutableReferences": {},
  "source": "//SPDX-License-Identifier: MIT\r\n\r\npragma solidity >=0.8.0;\r\n\r\ncontract SigCheck {\r\n    event ValueReceived(address user, uint256 amount);\r\n    event Print(bytes32);\r\n\r\n    function isValidSignature(\r\n        uint256 amount,\r\n        bytes memory signature,\r\n        uint256 nonce,\r\n        address sender,\r\n        address contractAddress,\r\n        address receiver\r\n    ) internal returns (bool) {\r\n        emit Print(0);\r\n        bytes32 message = prefixed(\r\n            keccak256(\r\n                abi.encodePacked(receiver, amount, nonce, contractAddress)\r\n            )\r\n        );\r\n        emit Print(message);\r\n        return recoverSigner(message, signature) == sender;\r\n    }\r\n\r\n    function recoverSigner(bytes32 message, bytes memory signature)\r\n        internal\r\n        pure\r\n        returns (address)\r\n    {\r\n        (uint8 v, bytes32 r, bytes32 s) = splitSignature(signature);\r\n        // if (v != 27 || v != 28) {\r\n        //     return (receiver);\r\n        // }\r\n        return ecrecover(message, v, r, s);\r\n    }\r\n\r\n    function splitSignature(bytes memory signature)\r\n        internal\r\n        pure\r\n        returns (\r\n            uint8 v,\r\n            bytes32 r,\r\n            bytes32 s\r\n        )\r\n    {\r\n        require(signature.length == 65, \"Signature is invalid length\");\r\n        assembly {\r\n            r := mload(add(signature, 32))\r\n            s := mload(add(signature, 64))\r\n            v := byte(0, mload(add(signature, 96)))\r\n        }\r\n        if (v < 27) {\r\n            v += 27;\r\n        }\r\n        return (v, r, s);\r\n    }\r\n\r\n    function prefixed(bytes32 hashv) internal pure returns (bytes32) {\r\n        return\r\n            keccak256(\r\n                abi.encodePacked(\"\\x19Ethereum Signed Message:\\n32\", hashv)\r\n            );\r\n    }\r\n\r\n    function isMatchingSignature(\r\n        uint256 amount,\r\n        bytes memory signature,\r\n        uint256 nonce,\r\n        address sender,\r\n        address contractAddress,\r\n        address _receiver\r\n    ) public returns (bool) {\r\n        return\r\n            isValidSignature(\r\n                amount,\r\n                signature,\r\n                nonce,\r\n                sender,\r\n                contractAddress,\r\n                _receiver\r\n            );\r\n    }\r\n\r\n    fallback() external payable {}\r\n\r\n    receive() external payable {\r\n        emit ValueReceived(msg.sender, msg.value);\r\n    }\r\n}\r\n",
  "sourcePath": "C:\\Projects\\Blockchain\\smart-parking-system\\contracts\\SigCheck.sol",
  "compiler": {
    "name": "solc",
    "version": "0.8.4+commit.c7e474f2.Emscripten.clang"
  },
  "schemaVersion": "3.4.6",
  "updatedAt": "2022-05-25T18:08:48.895Z",
  "devdoc": {
    "kind": "dev",
    "methods": {},
    "version": 1
  },
  "userdoc": {
    "kind": "user",
    "methods": {},
    "version": 1
  }
}